{
  "contractName": "Collection",
  "abi": [
    {
      "inputs": [],
      "stateMutability": "nonpayable",
      "type": "constructor"
    },
    {
      "anonymous": false,
      "inputs": [
        {
          "indexed": true,
          "internalType": "address",
          "name": "owner",
          "type": "address"
        },
        {
          "indexed": true,
          "internalType": "address",
          "name": "approved",
          "type": "address"
        },
        {
          "indexed": true,
          "internalType": "uint256",
          "name": "tokenId",
          "type": "uint256"
        }
      ],
      "name": "Approval",
      "type": "event"
    },
    {
      "anonymous": false,
      "inputs": [
        {
          "indexed": true,
          "internalType": "address",
          "name": "owner",
          "type": "address"
        },
        {
          "indexed": true,
          "internalType": "address",
          "name": "operator",
          "type": "address"
        },
        {
          "indexed": false,
          "internalType": "bool",
          "name": "approved",
          "type": "bool"
        }
      ],
      "name": "ApprovalForAll",
      "type": "event"
    },
    {
      "anonymous": false,
      "inputs": [
        {
          "indexed": true,
          "internalType": "address",
          "name": "previousOwner",
          "type": "address"
        },
        {
          "indexed": true,
          "internalType": "address",
          "name": "newOwner",
          "type": "address"
        }
      ],
      "name": "OwnershipTransferred",
      "type": "event"
    },
    {
      "anonymous": false,
      "inputs": [
        {
          "indexed": true,
          "internalType": "address",
          "name": "from",
          "type": "address"
        },
        {
          "indexed": true,
          "internalType": "address",
          "name": "to",
          "type": "address"
        },
        {
          "indexed": true,
          "internalType": "uint256",
          "name": "tokenId",
          "type": "uint256"
        }
      ],
      "name": "Transfer",
      "type": "event"
    },
    {
      "inputs": [
        {
          "internalType": "uint256",
          "name": "",
          "type": "uint256"
        }
      ],
      "name": "AllowedCrypto",
      "outputs": [
        {
          "internalType": "contract IERC20",
          "name": "payToken",
          "type": "address"
        },
        {
          "internalType": "uint256",
          "name": "costValue",
          "type": "uint256"
        }
      ],
      "stateMutability": "view",
      "type": "function"
    },
    {
      "inputs": [
        {
          "internalType": "address",
          "name": "to",
          "type": "address"
        },
        {
          "internalType": "uint256",
          "name": "tokenId",
          "type": "uint256"
        }
      ],
      "name": "approve",
      "outputs": [],
      "stateMutability": "nonpayable",
      "type": "function"
    },
    {
      "inputs": [
        {
          "internalType": "address",
          "name": "owner",
          "type": "address"
        }
      ],
      "name": "balanceOf",
      "outputs": [
        {
          "internalType": "uint256",
          "name": "",
          "type": "uint256"
        }
      ],
      "stateMutability": "view",
      "type": "function"
    },
    {
      "inputs": [],
      "name": "baseExtension",
      "outputs": [
        {
          "internalType": "string",
          "name": "",
          "type": "string"
        }
      ],
      "stateMutability": "view",
      "type": "function"
    },
    {
      "inputs": [],
      "name": "baseURI",
      "outputs": [
        {
          "internalType": "string",
          "name": "",
          "type": "string"
        }
      ],
      "stateMutability": "view",
      "type": "function"
    },
    {
      "inputs": [
        {
          "internalType": "uint256",
          "name": "tokenId",
          "type": "uint256"
        }
      ],
      "name": "getApproved",
      "outputs": [
        {
          "internalType": "address",
          "name": "",
          "type": "address"
        }
      ],
      "stateMutability": "view",
      "type": "function"
    },
    {
      "inputs": [
        {
          "internalType": "address",
          "name": "owner",
          "type": "address"
        },
        {
          "internalType": "address",
          "name": "operator",
          "type": "address"
        }
      ],
      "name": "isApprovedForAll",
      "outputs": [
        {
          "internalType": "bool",
          "name": "",
          "type": "bool"
        }
      ],
      "stateMutability": "view",
      "type": "function"
    },
    {
      "inputs": [],
      "name": "maxMintAmount",
      "outputs": [
        {
          "internalType": "uint256",
          "name": "",
          "type": "uint256"
        }
      ],
      "stateMutability": "view",
      "type": "function"
    },
    {
      "inputs": [],
      "name": "maxSupply",
      "outputs": [
        {
          "internalType": "uint32",
          "name": "",
          "type": "uint32"
        }
      ],
      "stateMutability": "view",
      "type": "function"
    },
    {
      "inputs": [],
      "name": "name",
      "outputs": [
        {
          "internalType": "string",
          "name": "",
          "type": "string"
        }
      ],
      "stateMutability": "view",
      "type": "function"
    },
    {
      "inputs": [],
      "name": "owner",
      "outputs": [
        {
          "internalType": "address",
          "name": "",
          "type": "address"
        }
      ],
      "stateMutability": "view",
      "type": "function"
    },
    {
      "inputs": [
        {
          "internalType": "uint256",
          "name": "tokenId",
          "type": "uint256"
        }
      ],
      "name": "ownerOf",
      "outputs": [
        {
          "internalType": "address",
          "name": "",
          "type": "address"
        }
      ],
      "stateMutability": "view",
      "type": "function"
    },
    {
      "inputs": [],
      "name": "paused",
      "outputs": [
        {
          "internalType": "bool",
          "name": "",
          "type": "bool"
        }
      ],
      "stateMutability": "view",
      "type": "function"
    },
    {
      "inputs": [],
      "name": "renounceOwnership",
      "outputs": [],
      "stateMutability": "nonpayable",
      "type": "function"
    },
    {
      "inputs": [
        {
          "internalType": "address",
          "name": "from",
          "type": "address"
        },
        {
          "internalType": "address",
          "name": "to",
          "type": "address"
        },
        {
          "internalType": "uint256",
          "name": "tokenId",
          "type": "uint256"
        }
      ],
      "name": "safeTransferFrom",
      "outputs": [],
      "stateMutability": "nonpayable",
      "type": "function"
    },
    {
      "inputs": [
        {
          "internalType": "address",
          "name": "from",
          "type": "address"
        },
        {
          "internalType": "address",
          "name": "to",
          "type": "address"
        },
        {
          "internalType": "uint256",
          "name": "tokenId",
          "type": "uint256"
        },
        {
          "internalType": "bytes",
          "name": "data",
          "type": "bytes"
        }
      ],
      "name": "safeTransferFrom",
      "outputs": [],
      "stateMutability": "nonpayable",
      "type": "function"
    },
    {
      "inputs": [
        {
          "internalType": "address",
          "name": "operator",
          "type": "address"
        },
        {
          "internalType": "bool",
          "name": "approved",
          "type": "bool"
        }
      ],
      "name": "setApprovalForAll",
      "outputs": [],
      "stateMutability": "nonpayable",
      "type": "function"
    },
    {
      "inputs": [
        {
          "internalType": "bytes4",
          "name": "interfaceId",
          "type": "bytes4"
        }
      ],
      "name": "supportsInterface",
      "outputs": [
        {
          "internalType": "bool",
          "name": "",
          "type": "bool"
        }
      ],
      "stateMutability": "view",
      "type": "function"
    },
    {
      "inputs": [],
      "name": "symbol",
      "outputs": [
        {
          "internalType": "string",
          "name": "",
          "type": "string"
        }
      ],
      "stateMutability": "view",
      "type": "function"
    },
    {
      "inputs": [
        {
          "internalType": "uint256",
          "name": "index",
          "type": "uint256"
        }
      ],
      "name": "tokenByIndex",
      "outputs": [
        {
          "internalType": "uint256",
          "name": "",
          "type": "uint256"
        }
      ],
      "stateMutability": "view",
      "type": "function"
    },
    {
      "inputs": [
        {
          "internalType": "address",
          "name": "owner",
          "type": "address"
        },
        {
          "internalType": "uint256",
          "name": "index",
          "type": "uint256"
        }
      ],
      "name": "tokenOfOwnerByIndex",
      "outputs": [
        {
          "internalType": "uint256",
          "name": "",
          "type": "uint256"
        }
      ],
      "stateMutability": "view",
      "type": "function"
    },
    {
      "inputs": [],
      "name": "totalSupply",
      "outputs": [
        {
          "internalType": "uint256",
          "name": "",
          "type": "uint256"
        }
      ],
      "stateMutability": "view",
      "type": "function"
    },
    {
      "inputs": [
        {
          "internalType": "address",
          "name": "from",
          "type": "address"
        },
        {
          "internalType": "address",
          "name": "to",
          "type": "address"
        },
        {
          "internalType": "uint256",
          "name": "tokenId",
          "type": "uint256"
        }
      ],
      "name": "transferFrom",
      "outputs": [],
      "stateMutability": "nonpayable",
      "type": "function"
    },
    {
      "inputs": [
        {
          "internalType": "address",
          "name": "newOwner",
          "type": "address"
        }
      ],
      "name": "transferOwnership",
      "outputs": [],
      "stateMutability": "nonpayable",
      "type": "function"
    },
    {
      "inputs": [
        {
          "internalType": "contract IERC20",
          "name": "_payToken",
          "type": "address"
        },
        {
          "internalType": "uint256",
          "name": "_cost",
          "type": "uint256"
        }
      ],
      "name": "addCurrency",
      "outputs": [],
      "stateMutability": "nonpayable",
      "type": "function"
    },
    {
      "inputs": [
        {
          "internalType": "address",
          "name": "_to",
          "type": "address"
        },
        {
          "internalType": "uint256",
          "name": "_mintAmount",
          "type": "uint256"
        },
        {
          "internalType": "uint256",
          "name": "_pid",
          "type": "uint256"
        }
      ],
      "name": "mint",
      "outputs": [],
      "stateMutability": "payable",
      "type": "function"
    },
    {
      "inputs": [
        {
          "internalType": "address",
          "name": "_owner",
          "type": "address"
        }
      ],
      "name": "walletOfOwner",
      "outputs": [
        {
          "internalType": "uint256[]",
          "name": "",
          "type": "uint256[]"
        }
      ],
      "stateMutability": "view",
      "type": "function"
    },
    {
      "inputs": [
        {
          "internalType": "uint256",
          "name": "tokenId",
          "type": "uint256"
        }
      ],
      "name": "tokenURI",
      "outputs": [
        {
          "internalType": "string",
          "name": "",
          "type": "string"
        }
      ],
      "stateMutability": "view",
      "type": "function"
    },
    {
      "inputs": [
        {
          "internalType": "uint256",
          "name": "_newmaxMintAmount",
          "type": "uint256"
        }
      ],
      "name": "setmaxMintAmount",
      "outputs": [],
      "stateMutability": "nonpayable",
      "type": "function"
    },
    {
      "inputs": [
        {
          "internalType": "string",
          "name": "_newBaseURI",
          "type": "string"
        }
      ],
      "name": "setBaseURI",
      "outputs": [],
      "stateMutability": "nonpayable",
      "type": "function"
    },
    {
      "inputs": [
        {
          "internalType": "string",
          "name": "_newBaseExtension",
          "type": "string"
        }
      ],
      "name": "setBaseExtension",
      "outputs": [],
      "stateMutability": "nonpayable",
      "type": "function"
    },
    {
      "inputs": [
        {
          "internalType": "bool",
          "name": "_state",
          "type": "bool"
        }
      ],
      "name": "pause",
      "outputs": [],
      "stateMutability": "nonpayable",
      "type": "function"
    },
    {
      "inputs": [
        {
          "internalType": "uint256",
          "name": "_pid",
          "type": "uint256"
        }
      ],
      "name": "withdraw",
      "outputs": [],
      "stateMutability": "payable",
      "type": "function"
    }
  ],
  "bytecode": "0x60806040526040518060400160405280600581526020017f2e6a736f6e000000000000000000000000000000000000000000000000000000815250600d90805190602001906200005192919062000238565b50620186a0600e60006101000a81548163ffffffff021916908363ffffffff1602179055506005600f556000601060006101000a81548160ff021916908315150217905550348015620000a357600080fd5b506040518060400160405280600e81526020017f4e465420436f6c6c656374696f6e0000000000000000000000000000000000008152506040518060400160405280600381526020017f4e3244000000000000000000000000000000000000000000000000000000000081525081600090805190602001906200012892919062000238565b5080600190805190602001906200014192919062000238565b50505062000164620001586200016a60201b60201c565b6200017260201b60201c565b6200034c565b600033905090565b6000600a60009054906101000a900473ffffffffffffffffffffffffffffffffffffffff16905081600a60006101000a81548173ffffffffffffffffffffffffffffffffffffffff021916908373ffffffffffffffffffffffffffffffffffffffff1602179055508173ffffffffffffffffffffffffffffffffffffffff168173ffffffffffffffffffffffffffffffffffffffff167f8be0079c531659141344cd1fd0a4f28419497f9722a3daafe3b4186f6b6457e060405160405180910390a35050565b828054620002469062000317565b90600052602060002090601f0160209004810192826200026a5760008555620002b6565b82601f106200028557805160ff1916838001178555620002b6565b82800160010185558215620002b6579182015b82811115620002b557825182559160200191906001019062000298565b5b509050620002c59190620002c9565b5090565b5b80821115620002e4576000816000905550600101620002ca565b5090565b7f4e487b7100000000000000000000000000000000000000000000000000000000600052602260045260246000fd5b600060028204905060018216806200033057607f821691505b602082108103620003465762000345620002e8565b5b50919050565b614463806200035c6000396000f3fe6080604052600436106101ee5760003560e01c80635c975abb1161010d57806395d89b41116100a0578063c87b56dd1161006f578063c87b56dd146106f4578063d5abeb0114610731578063da3ef23f1461075c578063e985e9c514610785578063f2fde38b146107c2576101ee565b806395d89b411461064c578063a22cb46514610677578063b88d4fde146106a0578063c6682862146106c9576101ee565b806370a08231116100dc57806370a08231146105a4578063715018a6146105e15780637f00c7a6146105f85780638da5cb5b14610621576101ee565b80635c975abb146104e85780636352211e14610513578063690e4fc3146105505780636c0360eb14610579576101ee565b806323b872dd1161018557806342842e0e1161015457806342842e0e1461041c578063438b6300146104455780634f6ccce71461048257806355f804b3146104bf576101ee565b806323b872dd1461035c57806326c91cad146103855780632e1a7d4d146103c35780632f745c59146103df576101ee565b8063095ea7b3116101c1578063095ea7b3146102c1578063156e29f6146102ea57806318160ddd14610306578063239c70ae14610331576101ee565b806301ffc9a7146101f357806302329a291461023057806306fdde0314610259578063081812fc14610284575b600080fd5b3480156101ff57600080fd5b5061021a60048036038101906102159190612bc8565b6107eb565b6040516102279190612c10565b60405180910390f35b34801561023c57600080fd5b5061025760048036038101906102529190612c57565b610865565b005b34801561026557600080fd5b5061026e61088a565b60405161027b9190612d1d565b60405180910390f35b34801561029057600080fd5b506102ab60048036038101906102a69190612d75565b61091c565b6040516102b89190612de3565b60405180910390f35b3480156102cd57600080fd5b506102e860048036038101906102e39190612e2a565b610962565b005b61030460048036038101906102ff9190612e6a565b610a79565b005b34801561031257600080fd5b5061031b610d2d565b6040516103289190612ecc565b60405180910390f35b34801561033d57600080fd5b50610346610d3a565b6040516103539190612ecc565b60405180910390f35b34801561036857600080fd5b50610383600480360381019061037e9190612ee7565b610d40565b005b34801561039157600080fd5b506103ac60048036038101906103a79190612d75565b610da0565b6040516103ba929190612f99565b60405180910390f35b6103dd60048036038101906103d89190612d75565b610df4565b005b3480156103eb57600080fd5b5061040660048036038101906104019190612e2a565b610f48565b6040516104139190612ecc565b60405180910390f35b34801561042857600080fd5b50610443600480360381019061043e9190612ee7565b610fed565b005b34801561045157600080fd5b5061046c60048036038101906104679190612fc2565b61100d565b60405161047991906130ad565b60405180910390f35b34801561048e57600080fd5b506104a960048036038101906104a49190612d75565b6110bb565b6040516104b69190612ecc565b60405180910390f35b3480156104cb57600080fd5b506104e660048036038101906104e19190613204565b61112c565b005b3480156104f457600080fd5b506104fd61114e565b60405161050a9190612c10565b60405180910390f35b34801561051f57600080fd5b5061053a60048036038101906105359190612d75565b611161565b6040516105479190612de3565b60405180910390f35b34801561055c57600080fd5b506105776004803603810190610572919061328b565b611212565b005b34801561058557600080fd5b5061058e6112c7565b60405161059b9190612d1d565b60405180910390f35b3480156105b057600080fd5b506105cb60048036038101906105c69190612fc2565b611355565b6040516105d89190612ecc565b60405180910390f35b3480156105ed57600080fd5b506105f661140c565b005b34801561060457600080fd5b5061061f600480360381019061061a9190612d75565b611420565b005b34801561062d57600080fd5b50610636611432565b6040516106439190612de3565b60405180910390f35b34801561065857600080fd5b5061066161145c565b60405161066e9190612d1d565b60405180910390f35b34801561068357600080fd5b5061069e600480360381019061069991906132cb565b6114ee565b005b3480156106ac57600080fd5b506106c760048036038101906106c291906133ac565b611504565b005b3480156106d557600080fd5b506106de611566565b6040516106eb9190612d1d565b60405180910390f35b34801561070057600080fd5b5061071b60048036038101906107169190612d75565b6115f4565b6040516107289190612d1d565b60405180910390f35b34801561073d57600080fd5b50610746611721565b604051610753919061344e565b60405180910390f35b34801561076857600080fd5b50610783600480360381019061077e9190613204565b611737565b005b34801561079157600080fd5b506107ac60048036038101906107a79190613469565b611759565b6040516107b99190612c10565b60405180910390f35b3480156107ce57600080fd5b506107e960048036038101906107e49190612fc2565b6117ed565b005b60007f780e9d63000000000000000000000000000000000000000000000000000000007bffffffffffffffffffffffffffffffffffffffffffffffffffffffff1916827bffffffffffffffffffffffffffffffffffffffffffffffffffffffff1916148061085e575061085d82611870565b5b9050919050565b61086d611952565b80601060006101000a81548160ff02191690831515021790555050565b606060008054610899906134d8565b80601f01602080910402602001604051908101604052809291908181526020018280546108c5906134d8565b80156109125780601f106108e757610100808354040283529160200191610912565b820191906000526020600020905b8154815290600101906020018083116108f557829003601f168201915b5050505050905090565b6000610927826119d0565b6004600083815260200190815260200160002060009054906101000a900473ffffffffffffffffffffffffffffffffffffffff169050919050565b600061096d82611161565b90508073ffffffffffffffffffffffffffffffffffffffff168373ffffffffffffffffffffffffffffffffffffffff16036109dd576040517f08c379a00000000000000000000000000000000000000000000000000000000081526004016109d49061357b565b60405180910390fd5b8073ffffffffffffffffffffffffffffffffffffffff166109fc611a1b565b73ffffffffffffffffffffffffffffffffffffffff161480610a2b5750610a2a81610a25611a1b565b611759565b5b610a6a576040517f08c379a0000000000000000000000000000000000000000000000000000000008152600401610a619061360d565b60405180910390fd5b610a748383611a23565b505050565b6000610a83610d2d565b90506000600b8381548110610a9b57610a9a61362d565b5b9060005260206000209060020201905060008160000160009054906101000a900473ffffffffffffffffffffffffffffffffffffffff169050600082600101549050601060009054906101000a900460ff1615610b2d576040517f08c379a0000000000000000000000000000000000000000000000000000000008152600401610b24906136a8565b60405180910390fd5b600086118015610b3f5750600f548611155b610b7e576040517f08c379a0000000000000000000000000000000000000000000000000000000008152600401610b7590613714565b60405180910390fd5b600e60009054906101000a900463ffffffff1663ffffffff168685610ba39190613763565b1115610be4576040517f08c379a0000000000000000000000000000000000000000000000000000000008152600401610bdb90613805565b60405180910390fd5b610bec611432565b73ffffffffffffffffffffffffffffffffffffffff163373ffffffffffffffffffffffffffffffffffffffff1614610c6c578581610c2a9190613825565b3414610c6b576040517f08c379a0000000000000000000000000000000000000000000000000000000008152600401610c62906138cb565b60405180910390fd5b5b6000600190505b868111610d23578273ffffffffffffffffffffffffffffffffffffffff166323b872dd3330856040518463ffffffff1660e01b8152600401610cb7939291906138eb565b6020604051808303816000875af1158015610cd6573d6000803e3d6000fd5b505050506040513d601f19601f82011682018060405250810190610cfa9190613937565b50610d10888287610d0b9190613763565b611adc565b8080610d1b90613964565b915050610c73565b5050505050505050565b6000600880549050905090565b600f5481565b610d51610d4b611a1b565b82611afa565b610d90576040517f08c379a0000000000000000000000000000000000000000000000000000000008152600401610d8790613a1e565b60405180910390fd5b610d9b838383611b8f565b505050565b600b8181548110610db057600080fd5b90600052602060002090600202016000915090508060000160009054906101000a900473ffffffffffffffffffffffffffffffffffffffff16908060010154905082565b610dfc611952565b6000600b8281548110610e1257610e1161362d565b5b9060005260206000209060020201905060008160000160009054906101000a900473ffffffffffffffffffffffffffffffffffffffff1690508073ffffffffffffffffffffffffffffffffffffffff1663a9059cbb338373ffffffffffffffffffffffffffffffffffffffff166370a08231306040518263ffffffff1660e01b8152600401610ea19190612de3565b602060405180830381865afa158015610ebe573d6000803e3d6000fd5b505050506040513d601f19601f82011682018060405250810190610ee29190613a53565b6040518363ffffffff1660e01b8152600401610eff929190613a80565b6020604051808303816000875af1158015610f1e573d6000803e3d6000fd5b505050506040513d601f19601f82011682018060405250810190610f429190613937565b50505050565b6000610f5383611355565b8210610f94576040517f08c379a0000000000000000000000000000000000000000000000000000000008152600401610f8b90613b1b565b60405180910390fd5b600660008473ffffffffffffffffffffffffffffffffffffffff1673ffffffffffffffffffffffffffffffffffffffff168152602001908152602001600020600083815260200190815260200160002054905092915050565b61100883838360405180602001604052806000815250611504565b505050565b6060600061101a83611355565b905060008167ffffffffffffffff811115611038576110376130d9565b5b6040519080825280602002602001820160405280156110665781602001602082028036833780820191505090505b50905060005b828110156110b05761107e8582610f48565b8282815181106110915761109061362d565b5b60200260200101818152505080806110a890613964565b91505061106c565b508092505050919050565b60006110c5610d2d565b8210611106576040517f08c379a00000000000000000000000000000000000000000000000000000000081526004016110fd90613bad565b60405180910390fd5b6008828154811061111a5761111961362d565b5b90600052602060002001549050919050565b611134611952565b80600c908051906020019061114a929190612ab9565b5050565b601060009054906101000a900460ff1681565b6000806002600084815260200190815260200160002060009054906101000a900473ffffffffffffffffffffffffffffffffffffffff169050600073ffffffffffffffffffffffffffffffffffffffff168173ffffffffffffffffffffffffffffffffffffffff1603611209576040517f08c379a000000000000000000000000000000000000000000000000000000000815260040161120090613c19565b60405180910390fd5b80915050919050565b61121a611952565b600b60405180604001604052808473ffffffffffffffffffffffffffffffffffffffff16815260200183815250908060018154018082558091505060019003906000526020600020906002020160009091909190915060008201518160000160006101000a81548173ffffffffffffffffffffffffffffffffffffffff021916908373ffffffffffffffffffffffffffffffffffffffff1602179055506020820151816001015550505050565b600c80546112d4906134d8565b80601f0160208091040260200160405190810160405280929190818152602001828054611300906134d8565b801561134d5780601f106113225761010080835404028352916020019161134d565b820191906000526020600020905b81548152906001019060200180831161133057829003601f168201915b505050505081565b60008073ffffffffffffffffffffffffffffffffffffffff168273ffffffffffffffffffffffffffffffffffffffff16036113c5576040517f08c379a00000000000000000000000000000000000000000000000000000000081526004016113bc90613cab565b60405180910390fd5b600360008373ffffffffffffffffffffffffffffffffffffffff1673ffffffffffffffffffffffffffffffffffffffff168152602001908152602001600020549050919050565b611414611952565b61141e6000611df5565b565b611428611952565b80600f8190555050565b6000600a60009054906101000a900473ffffffffffffffffffffffffffffffffffffffff16905090565b60606001805461146b906134d8565b80601f0160208091040260200160405190810160405280929190818152602001828054611497906134d8565b80156114e45780601f106114b9576101008083540402835291602001916114e4565b820191906000526020600020905b8154815290600101906020018083116114c757829003601f168201915b5050505050905090565b6115006114f9611a1b565b8383611ebb565b5050565b61151561150f611a1b565b83611afa565b611554576040517f08c379a000000000000000000000000000000000000000000000000000000000815260040161154b90613a1e565b60405180910390fd5b61156084848484612027565b50505050565b600d8054611573906134d8565b80601f016020809104026020016040519081016040528092919081815260200182805461159f906134d8565b80156115ec5780601f106115c1576101008083540402835291602001916115ec565b820191906000526020600020905b8154815290600101906020018083116115cf57829003601f168201915b505050505081565b60606115ff82612083565b61163e576040517f08c379a000000000000000000000000000000000000000000000000000000000815260040161163590613d3d565b60405180910390fd5b6000600c805461164d906134d8565b80601f0160208091040260200160405190810160405280929190818152602001828054611679906134d8565b80156116c65780601f1061169b576101008083540402835291602001916116c6565b820191906000526020600020905b8154815290600101906020018083116116a957829003601f168201915b5050505050905060008151116116eb5760405180602001604052806000815250611719565b806116f5846120ef565b600d60405160200161170993929190613e2d565b6040516020818303038152906040525b915050919050565b600e60009054906101000a900463ffffffff1681565b61173f611952565b80600d9080519060200190611755929190612ab9565b5050565b6000600560008473ffffffffffffffffffffffffffffffffffffffff1673ffffffffffffffffffffffffffffffffffffffff16815260200190815260200160002060008373ffffffffffffffffffffffffffffffffffffffff1673ffffffffffffffffffffffffffffffffffffffff16815260200190815260200160002060009054906101000a900460ff16905092915050565b6117f5611952565b600073ffffffffffffffffffffffffffffffffffffffff168173ffffffffffffffffffffffffffffffffffffffff1603611864576040517f08c379a000000000000000000000000000000000000000000000000000000000815260040161185b90613ed0565b60405180910390fd5b61186d81611df5565b50565b60007f80ac58cd000000000000000000000000000000000000000000000000000000007bffffffffffffffffffffffffffffffffffffffffffffffffffffffff1916827bffffffffffffffffffffffffffffffffffffffffffffffffffffffff1916148061193b57507f5b5e139f000000000000000000000000000000000000000000000000000000007bffffffffffffffffffffffffffffffffffffffffffffffffffffffff1916827bffffffffffffffffffffffffffffffffffffffffffffffffffffffff1916145b8061194b575061194a8261224f565b5b9050919050565b61195a611a1b565b73ffffffffffffffffffffffffffffffffffffffff16611978611432565b73ffffffffffffffffffffffffffffffffffffffff16146119ce576040517f08c379a00000000000000000000000000000000000000000000000000000000081526004016119c590613f3c565b60405180910390fd5b565b6119d981612083565b611a18576040517f08c379a0000000000000000000000000000000000000000000000000000000008152600401611a0f90613c19565b60405180910390fd5b50565b600033905090565b816004600083815260200190815260200160002060006101000a81548173ffffffffffffffffffffffffffffffffffffffff021916908373ffffffffffffffffffffffffffffffffffffffff160217905550808273ffffffffffffffffffffffffffffffffffffffff16611a9683611161565b73ffffffffffffffffffffffffffffffffffffffff167f8c5be1e5ebec7d5bd14f71427d1e84f3dd0314c0f7b2291e5b200ac8c7c3b92560405160405180910390a45050565b611af68282604051806020016040528060008152506122b9565b5050565b600080611b0683611161565b90508073ffffffffffffffffffffffffffffffffffffffff168473ffffffffffffffffffffffffffffffffffffffff161480611b485750611b478185611759565b5b80611b8657508373ffffffffffffffffffffffffffffffffffffffff16611b6e8461091c565b73ffffffffffffffffffffffffffffffffffffffff16145b91505092915050565b8273ffffffffffffffffffffffffffffffffffffffff16611baf82611161565b73ffffffffffffffffffffffffffffffffffffffff1614611c05576040517f08c379a0000000000000000000000000000000000000000000000000000000008152600401611bfc90613fce565b60405180910390fd5b600073ffffffffffffffffffffffffffffffffffffffff168273ffffffffffffffffffffffffffffffffffffffff1603611c74576040517f08c379a0000000000000000000000000000000000000000000000000000000008152600401611c6b90614060565b60405180910390fd5b611c7f838383612314565b611c8a600082611a23565b6001600360008573ffffffffffffffffffffffffffffffffffffffff1673ffffffffffffffffffffffffffffffffffffffff1681526020019081526020016000206000828254611cda9190614080565b925050819055506001600360008473ffffffffffffffffffffffffffffffffffffffff1673ffffffffffffffffffffffffffffffffffffffff1681526020019081526020016000206000828254611d319190613763565b92505081905550816002600083815260200190815260200160002060006101000a81548173ffffffffffffffffffffffffffffffffffffffff021916908373ffffffffffffffffffffffffffffffffffffffff160217905550808273ffffffffffffffffffffffffffffffffffffffff168473ffffffffffffffffffffffffffffffffffffffff167fddf252ad1be2c89b69c2b068fc378daa952ba7f163c4a11628f55a4df523b3ef60405160405180910390a4611df0838383612426565b505050565b6000600a60009054906101000a900473ffffffffffffffffffffffffffffffffffffffff16905081600a60006101000a81548173ffffffffffffffffffffffffffffffffffffffff021916908373ffffffffffffffffffffffffffffffffffffffff1602179055508173ffffffffffffffffffffffffffffffffffffffff168173ffffffffffffffffffffffffffffffffffffffff167f8be0079c531659141344cd1fd0a4f28419497f9722a3daafe3b4186f6b6457e060405160405180910390a35050565b8173ffffffffffffffffffffffffffffffffffffffff168373ffffffffffffffffffffffffffffffffffffffff1603611f29576040517f08c379a0000000000000000000000000000000000000000000000000000000008152600401611f2090614100565b60405180910390fd5b80600560008573ffffffffffffffffffffffffffffffffffffffff1673ffffffffffffffffffffffffffffffffffffffff16815260200190815260200160002060008473ffffffffffffffffffffffffffffffffffffffff1673ffffffffffffffffffffffffffffffffffffffff16815260200190815260200160002060006101000a81548160ff0219169083151502179055508173ffffffffffffffffffffffffffffffffffffffff168373ffffffffffffffffffffffffffffffffffffffff167f17307eab39ab6107e8899845ad3d59bd9653f200f220920489ca2b5937696c318360405161201a9190612c10565b60405180910390a3505050565b612032848484611b8f565b61203e8484848461242b565b61207d576040517f08c379a000000000000000000000000000000000000000000000000000000000815260040161207490614192565b60405180910390fd5b50505050565b60008073ffffffffffffffffffffffffffffffffffffffff166002600084815260200190815260200160002060009054906101000a900473ffffffffffffffffffffffffffffffffffffffff1673ffffffffffffffffffffffffffffffffffffffff1614159050919050565b606060008203612136576040518060400160405280600181526020017f3000000000000000000000000000000000000000000000000000000000000000815250905061224a565b600082905060005b6000821461216857808061215190613964565b915050600a8261216191906141e1565b915061213e565b60008167ffffffffffffffff811115612184576121836130d9565b5b6040519080825280601f01601f1916602001820160405280156121b65781602001600182028036833780820191505090505b5090505b60008514612243576001826121cf9190614080565b9150600a856121de9190614212565b60306121ea9190613763565b60f81b818381518110612200576121ff61362d565b5b60200101907effffffffffffffffffffffffffffffffffffffffffffffffffffffffffffff1916908160001a905350600a8561223c91906141e1565b94506121ba565b8093505050505b919050565b60007f01ffc9a7000000000000000000000000000000000000000000000000000000007bffffffffffffffffffffffffffffffffffffffffffffffffffffffff1916827bffffffffffffffffffffffffffffffffffffffffffffffffffffffff1916149050919050565b6122c383836125b2565b6122d0600084848461242b565b61230f576040517f08c379a000000000000000000000000000000000000000000000000000000000815260040161230690614192565b60405180910390fd5b505050565b61231f83838361278b565b600073ffffffffffffffffffffffffffffffffffffffff168373ffffffffffffffffffffffffffffffffffffffff16036123615761235c81612790565b6123a0565b8173ffffffffffffffffffffffffffffffffffffffff168373ffffffffffffffffffffffffffffffffffffffff161461239f5761239e83826127d9565b5b5b600073ffffffffffffffffffffffffffffffffffffffff168273ffffffffffffffffffffffffffffffffffffffff16036123e2576123dd81612946565b612421565b8273ffffffffffffffffffffffffffffffffffffffff168273ffffffffffffffffffffffffffffffffffffffff16146124205761241f8282612a17565b5b5b505050565b505050565b600061244c8473ffffffffffffffffffffffffffffffffffffffff16612a96565b156125a5578373ffffffffffffffffffffffffffffffffffffffff1663150b7a02612475611a1b565b8786866040518563ffffffff1660e01b81526004016124979493929190614298565b6020604051808303816000875af19250505080156124d357506040513d601f19601f820116820180604052508101906124d091906142f9565b60015b612555573d8060008114612503576040519150601f19603f3d011682016040523d82523d6000602084013e612508565b606091505b50600081510361254d576040517f08c379a000000000000000000000000000000000000000000000000000000000815260040161254490614192565b60405180910390fd5b805181602001fd5b63150b7a0260e01b7bffffffffffffffffffffffffffffffffffffffffffffffffffffffff1916817bffffffffffffffffffffffffffffffffffffffffffffffffffffffff1916149150506125aa565b600190505b949350505050565b600073ffffffffffffffffffffffffffffffffffffffff168273ffffffffffffffffffffffffffffffffffffffff1603612621576040517f08c379a000000000000000000000000000000000000000000000000000000000815260040161261890614372565b60405180910390fd5b61262a81612083565b1561266a576040517f08c379a0000000000000000000000000000000000000000000000000000000008152600401612661906143de565b60405180910390fd5b61267660008383612314565b6001600360008473ffffffffffffffffffffffffffffffffffffffff1673ffffffffffffffffffffffffffffffffffffffff16815260200190815260200160002060008282546126c69190613763565b92505081905550816002600083815260200190815260200160002060006101000a81548173ffffffffffffffffffffffffffffffffffffffff021916908373ffffffffffffffffffffffffffffffffffffffff160217905550808273ffffffffffffffffffffffffffffffffffffffff16600073ffffffffffffffffffffffffffffffffffffffff167fddf252ad1be2c89b69c2b068fc378daa952ba7f163c4a11628f55a4df523b3ef60405160405180910390a461278760008383612426565b5050565b505050565b6008805490506009600083815260200190815260200160002081905550600881908060018154018082558091505060019003906000526020600020016000909190919091505550565b600060016127e684611355565b6127f09190614080565b90506000600760008481526020019081526020016000205490508181146128d5576000600660008673ffffffffffffffffffffffffffffffffffffffff1673ffffffffffffffffffffffffffffffffffffffff168152602001908152602001600020600084815260200190815260200160002054905080600660008773ffffffffffffffffffffffffffffffffffffffff1673ffffffffffffffffffffffffffffffffffffffff168152602001908152602001600020600084815260200190815260200160002081905550816007600083815260200190815260200160002081905550505b6007600084815260200190815260200160002060009055600660008573ffffffffffffffffffffffffffffffffffffffff1673ffffffffffffffffffffffffffffffffffffffff16815260200190815260200160002060008381526020019081526020016000206000905550505050565b6000600160088054905061295a9190614080565b905060006009600084815260200190815260200160002054905060006008838154811061298a5761298961362d565b5b9060005260206000200154905080600883815481106129ac576129ab61362d565b5b9060005260206000200181905550816009600083815260200190815260200160002081905550600960008581526020019081526020016000206000905560088054806129fb576129fa6143fe565b5b6001900381819060005260206000200160009055905550505050565b6000612a2283611355565b905081600660008573ffffffffffffffffffffffffffffffffffffffff1673ffffffffffffffffffffffffffffffffffffffff168152602001908152602001600020600083815260200190815260200160002081905550806007600084815260200190815260200160002081905550505050565b6000808273ffffffffffffffffffffffffffffffffffffffff163b119050919050565b828054612ac5906134d8565b90600052602060002090601f016020900481019282612ae75760008555612b2e565b82601f10612b0057805160ff1916838001178555612b2e565b82800160010185558215612b2e579182015b82811115612b2d578251825591602001919060010190612b12565b5b509050612b3b9190612b3f565b5090565b5b80821115612b58576000816000905550600101612b40565b5090565b6000604051905090565b600080fd5b600080fd5b60007fffffffff0000000000000000000000000000000000000000000000000000000082169050919050565b612ba581612b70565b8114612bb057600080fd5b50565b600081359050612bc281612b9c565b92915050565b600060208284031215612bde57612bdd612b66565b5b6000612bec84828501612bb3565b91505092915050565b60008115159050919050565b612c0a81612bf5565b82525050565b6000602082019050612c256000830184612c01565b92915050565b612c3481612bf5565b8114612c3f57600080fd5b50565b600081359050612c5181612c2b565b92915050565b600060208284031215612c6d57612c6c612b66565b5b6000612c7b84828501612c42565b91505092915050565b600081519050919050565b600082825260208201905092915050565b60005b83811015612cbe578082015181840152602081019050612ca3565b83811115612ccd576000848401525b50505050565b6000601f19601f8301169050919050565b6000612cef82612c84565b612cf98185612c8f565b9350612d09818560208601612ca0565b612d1281612cd3565b840191505092915050565b60006020820190508181036000830152612d378184612ce4565b905092915050565b6000819050919050565b612d5281612d3f565b8114612d5d57600080fd5b50565b600081359050612d6f81612d49565b92915050565b600060208284031215612d8b57612d8a612b66565b5b6000612d9984828501612d60565b91505092915050565b600073ffffffffffffffffffffffffffffffffffffffff82169050919050565b6000612dcd82612da2565b9050919050565b612ddd81612dc2565b82525050565b6000602082019050612df86000830184612dd4565b92915050565b612e0781612dc2565b8114612e1257600080fd5b50565b600081359050612e2481612dfe565b92915050565b60008060408385031215612e4157612e40612b66565b5b6000612e4f85828601612e15565b9250506020612e6085828601612d60565b9150509250929050565b600080600060608486031215612e8357612e82612b66565b5b6000612e9186828701612e15565b9350506020612ea286828701612d60565b9250506040612eb386828701612d60565b9150509250925092565b612ec681612d3f565b82525050565b6000602082019050612ee16000830184612ebd565b92915050565b600080600060608486031215612f0057612eff612b66565b5b6000612f0e86828701612e15565b9350506020612f1f86828701612e15565b9250506040612f3086828701612d60565b9150509250925092565b6000819050919050565b6000612f5f612f5a612f5584612da2565b612f3a565b612da2565b9050919050565b6000612f7182612f44565b9050919050565b6000612f8382612f66565b9050919050565b612f9381612f78565b82525050565b6000604082019050612fae6000830185612f8a565b612fbb6020830184612ebd565b9392505050565b600060208284031215612fd857612fd7612b66565b5b6000612fe684828501612e15565b91505092915050565b600081519050919050565b600082825260208201905092915050565b6000819050602082019050919050565b61302481612d3f565b82525050565b6000613036838361301b565b60208301905092915050565b6000602082019050919050565b600061305a82612fef565b6130648185612ffa565b935061306f8361300b565b8060005b838110156130a0578151613087888261302a565b975061309283613042565b925050600181019050613073565b5085935050505092915050565b600060208201905081810360008301526130c7818461304f565b905092915050565b600080fd5b600080fd5b7f4e487b7100000000000000000000000000000000000000000000000000000000600052604160045260246000fd5b61311182612cd3565b810181811067ffffffffffffffff821117156131305761312f6130d9565b5b80604052505050565b6000613143612b5c565b905061314f8282613108565b919050565b600067ffffffffffffffff82111561316f5761316e6130d9565b5b61317882612cd3565b9050602081019050919050565b82818337600083830152505050565b60006131a76131a284613154565b613139565b9050828152602081018484840111156131c3576131c26130d4565b5b6131ce848285613185565b509392505050565b600082601f8301126131eb576131ea6130cf565b5b81356131fb848260208601613194565b91505092915050565b60006020828403121561321a57613219612b66565b5b600082013567ffffffffffffffff81111561323857613237612b6b565b5b613244848285016131d6565b91505092915050565b600061325882612dc2565b9050919050565b6132688161324d565b811461327357600080fd5b50565b6000813590506132858161325f565b92915050565b600080604083850312156132a2576132a1612b66565b5b60006132b085828601613276565b92505060206132c185828601612d60565b9150509250929050565b600080604083850312156132e2576132e1612b66565b5b60006132f085828601612e15565b925050602061330185828601612c42565b9150509250929050565b600067ffffffffffffffff821115613326576133256130d9565b5b61332f82612cd3565b9050602081019050919050565b600061334f61334a8461330b565b613139565b90508281526020810184848401111561336b5761336a6130d4565b5b613376848285613185565b509392505050565b600082601f830112613393576133926130cf565b5b81356133a384826020860161333c565b91505092915050565b600080600080608085870312156133c6576133c5612b66565b5b60006133d487828801612e15565b94505060206133e587828801612e15565b93505060406133f687828801612d60565b925050606085013567ffffffffffffffff81111561341757613416612b6b565b5b6134238782880161337e565b91505092959194509250565b600063ffffffff82169050919050565b6134488161342f565b82525050565b6000602082019050613463600083018461343f565b92915050565b600080604083850312156134805761347f612b66565b5b600061348e85828601612e15565b925050602061349f85828601612e15565b9150509250929050565b7f4e487b7100000000000000000000000000000000000000000000000000000000600052602260045260246000fd5b600060028204905060018216806134f057607f821691505b602082108103613503576135026134a9565b5b50919050565b7f4552433732313a20617070726f76616c20746f2063757272656e74206f776e6560008201527f7200000000000000000000000000000000000000000000000000000000000000602082015250565b6000613565602183612c8f565b915061357082613509565b604082019050919050565b6000602082019050818103600083015261359481613558565b9050919050565b7f4552433732313a20617070726f76652063616c6c6572206973206e6f7420746f60008201527f6b656e206f776e6572206e6f7220617070726f76656420666f7220616c6c0000602082015250565b60006135f7603e83612c8f565b91506136028261359b565b604082019050919050565b60006020820190508181036000830152613626816135ea565b9050919050565b7f4e487b7100000000000000000000000000000000000000000000000000000000600052603260045260246000fd5b7f636f6e7472616374206973207061757365640000000000000000000000000000600082015250565b6000613692601283612c8f565b915061369d8261365c565b602082019050919050565b600060208201905081810360008301526136c181613685565b9050919050565b7f696e76616c6964206d696e7420616d6f756e7400000000000000000000000000600082015250565b60006136fe601383612c8f565b9150613709826136c8565b602082019050919050565b6000602082019050818103600083015261372d816136f1565b9050919050565b7f4e487b7100000000000000000000000000000000000000000000000000000000600052601160045260246000fd5b600061376e82612d3f565b915061377983612d3f565b9250827fffffffffffffffffffffffffffffffffffffffffffffffffffffffffffffffff038211156137ae576137ad613734565b5b828201905092915050565b7f616d6f756e742065786365656473206d617820737570706c7900000000000000600082015250565b60006137ef601983612c8f565b91506137fa826137b9565b602082019050919050565b6000602082019050818103600083015261381e816137e2565b9050919050565b600061383082612d3f565b915061383b83612d3f565b9250817fffffffffffffffffffffffffffffffffffffffffffffffffffffffffffffffff048311821515161561387457613873613734565b5b828202905092915050565b7f4e65656420746f2073656e6420302e3038206574686572210000000000000000600082015250565b60006138b5601883612c8f565b91506138c08261387f565b602082019050919050565b600060208201905081810360008301526138e4816138a8565b9050919050565b60006060820190506139006000830186612dd4565b61390d6020830185612dd4565b61391a6040830184612ebd565b949350505050565b60008151905061393181612c2b565b92915050565b60006020828403121561394d5761394c612b66565b5b600061395b84828501613922565b91505092915050565b600061396f82612d3f565b91507fffffffffffffffffffffffffffffffffffffffffffffffffffffffffffffffff82036139a1576139a0613734565b5b600182019050919050565b7f4552433732313a2063616c6c6572206973206e6f7420746f6b656e206f776e6560008201527f72206e6f7220617070726f766564000000000000000000000000000000000000602082015250565b6000613a08602e83612c8f565b9150613a13826139ac565b604082019050919050565b60006020820190508181036000830152613a37816139fb565b9050919050565b600081519050613a4d81612d49565b92915050565b600060208284031215613a6957613a68612b66565b5b6000613a7784828501613a3e565b91505092915050565b6000604082019050613a956000830185612dd4565b613aa26020830184612ebd565b9392505050565b7f455243373231456e756d657261626c653a206f776e657220696e646578206f7560008201527f74206f6620626f756e6473000000000000000000000000000000000000000000602082015250565b6000613b05602b83612c8f565b9150613b1082613aa9565b604082019050919050565b60006020820190508181036000830152613b3481613af8565b9050919050565b7f455243373231456e756d657261626c653a20676c6f62616c20696e646578206f60008201527f7574206f6620626f756e64730000000000000000000000000000000000000000602082015250565b6000613b97602c83612c8f565b9150613ba282613b3b565b604082019050919050565b60006020820190508181036000830152613bc681613b8a565b9050919050565b7f4552433732313a20696e76616c696420746f6b656e2049440000000000000000600082015250565b6000613c03601883612c8f565b9150613c0e82613bcd565b602082019050919050565b60006020820190508181036000830152613c3281613bf6565b9050919050565b7f4552433732313a2061646472657373207a65726f206973206e6f74206120766160008201527f6c6964206f776e65720000000000000000000000000000000000000000000000602082015250565b6000613c95602983612c8f565b9150613ca082613c39565b604082019050919050565b60006020820190508181036000830152613cc481613c88565b9050919050565b7f4552433732314d657461646174613a2055524920717565727920666f72206e6f60008201527f6e6578697374656e7420746f6b656e0000000000000000000000000000000000602082015250565b6000613d27602f83612c8f565b9150613d3282613ccb565b604082019050919050565b60006020820190508181036000830152613d5681613d1a565b9050919050565b600081905092915050565b6000613d7382612c84565b613d7d8185613d5d565b9350613d8d818560208601612ca0565b80840191505092915050565b60008190508160005260206000209050919050565b60008154613dbb816134d8565b613dc58186613d5d565b94506001821660008114613de05760018114613df157613e24565b60ff19831686528186019350613e24565b613dfa85613d99565b60005b83811015613e1c57815481890152600182019150602081019050613dfd565b838801955050505b50505092915050565b6000613e398286613d68565b9150613e458285613d68565b9150613e518284613dae565b9150819050949350505050565b7f4f776e61626c653a206e6577206f776e657220697320746865207a65726f206160008201527f6464726573730000000000000000000000000000000000000000000000000000602082015250565b6000613eba602683612c8f565b9150613ec582613e5e565b604082019050919050565b60006020820190508181036000830152613ee981613ead565b9050919050565b7f4f776e61626c653a2063616c6c6572206973206e6f7420746865206f776e6572600082015250565b6000613f26602083612c8f565b9150613f3182613ef0565b602082019050919050565b60006020820190508181036000830152613f5581613f19565b9050919050565b7f4552433732313a207472616e736665722066726f6d20696e636f72726563742060008201527f6f776e6572000000000000000000000000000000000000000000000000000000602082015250565b6000613fb8602583612c8f565b9150613fc382613f5c565b604082019050919050565b60006020820190508181036000830152613fe781613fab565b9050919050565b7f4552433732313a207472616e7366657220746f20746865207a65726f2061646460008201527f7265737300000000000000000000000000000000000000000000000000000000602082015250565b600061404a602483612c8f565b915061405582613fee565b604082019050919050565b600060208201905081810360008301526140798161403d565b9050919050565b600061408b82612d3f565b915061409683612d3f565b9250828210156140a9576140a8613734565b5b828203905092915050565b7f4552433732313a20617070726f766520746f2063616c6c657200000000000000600082015250565b60006140ea601983612c8f565b91506140f5826140b4565b602082019050919050565b60006020820190508181036000830152614119816140dd565b9050919050565b7f4552433732313a207472616e7366657220746f206e6f6e20455243373231526560008201527f63656976657220696d706c656d656e7465720000000000000000000000000000602082015250565b600061417c603283612c8f565b915061418782614120565b604082019050919050565b600060208201905081810360008301526141ab8161416f565b9050919050565b7f4e487b7100000000000000000000000000000000000000000000000000000000600052601260045260246000fd5b60006141ec82612d3f565b91506141f783612d3f565b925082614207576142066141b2565b5b828204905092915050565b600061421d82612d3f565b915061422883612d3f565b925082614238576142376141b2565b5b828206905092915050565b600081519050919050565b600082825260208201905092915050565b600061426a82614243565b614274818561424e565b9350614284818560208601612ca0565b61428d81612cd3565b840191505092915050565b60006080820190506142ad6000830187612dd4565b6142ba6020830186612dd4565b6142c76040830185612ebd565b81810360608301526142d9818461425f565b905095945050505050565b6000815190506142f381612b9c565b92915050565b60006020828403121561430f5761430e612b66565b5b600061431d848285016142e4565b91505092915050565b7f4552433732313a206d696e7420746f20746865207a65726f2061646472657373600082015250565b600061435c602083612c8f565b915061436782614326565b602082019050919050565b6000602082019050818103600083015261438b8161434f565b9050919050565b7f4552433732313a20746f6b656e20616c7265616479206d696e74656400000000600082015250565b60006143c8601c83612c8f565b91506143d382614392565b602082019050919050565b600060208201905081810360008301526143f7816143bb565b9050919050565b7f4e487b7100000000000000000000000000000000000000000000000000000000600052603160045260246000fdfea264697066735822122042d3514bd026a63325b0fba323a44aaa8d09d5fda5beef8aebbab21c254d4b7d64736f6c634300080d0033",
  "immutableReferences": {},
  "source": "// SPDX-License-Identifier: MIT\n\npragma solidity ^0.8.0;\n\nimport \"@openzeppelin/contracts/token/ERC721/extensions/ERC721Enumerable.sol\";\nimport \"@openzeppelin/contracts/access/Ownable.sol\";\nimport \"@openzeppelin/contracts/token/ERC20/IERC20.sol\";\n\ncontract Collection is ERC721Enumerable, Ownable {\n\n    struct TokenInfo {\n        IERC20 payToken;\n        uint256 costValue;\n    }\n    TokenInfo[] public AllowedCrypto;\n\n    using Strings for uint256;\n    string public baseURI;\n    string public baseExtension = \".json\";\n\n    //uint256 public cost = 0.001 ether;\n\n    // 1 SLOT\n    uint32 public maxSupply = 100000; // supports for 2 ^ 32\n    uint256 public maxMintAmount = 5; \n    bool public paused = false;\n    // 1 SLOT\n\n    constructor() ERC721(\"NFT Collection\", \"N2D\") {}\n\n    function addCurrency(IERC20 _payToken, uint256 _cost) public onlyOwner {\n            AllowedCrypto.push(TokenInfo({\n                payToken: _payToken,\n                costValue: _cost \n            })\n            );\n\n    }\n    //internal\n    function _baseURI() internal view virtual override returns (string memory){\n        return \"\";\n    }\n\n    function mint(address _to, uint256 _mintAmount, uint _pid) external payable {\n        uint256 supply = totalSupply(); //from enumerable maybe;\n        TokenInfo storage tokens = AllowedCrypto[_pid];\n        IERC20 payToken;\n        payToken = tokens.payToken;\n        uint256 cost;\n        cost = tokens.costValue;\n        require(!paused, \"contract is paused\");\n        require(_mintAmount > 0 && _mintAmount <= maxMintAmount, \"invalid mint amount\");\n        require(supply + _mintAmount <= maxSupply, \"amount exceeds max supply\");\n        \n        if (msg.sender != owner()) {\n            require(msg.value == cost * _mintAmount, \"Need to send 0.08 ether!\");\n        }\n        \n        for (uint256 i = 1; i <= _mintAmount; i++) {\n            payToken.transferFrom(msg.sender, address(this), cost);\n            _safeMint(_to, supply + i);\n        }\n    }\n\n    function walletOfOwner(address _owner) external view returns (uint256[] memory) {\n        uint256 ownerTokenCount = balanceOf(_owner);\n        uint256[] memory tokenIds = new uint256[](ownerTokenCount);\n        for (uint256 i; i < ownerTokenCount; i++) {\n            tokenIds[i] = tokenOfOwnerByIndex(_owner, i);\n        }\n        return tokenIds;\n    }\n    \n    function tokenURI(uint256 tokenId)\n    public\n    view\n    override\n    returns (string memory) {\n        require(\n            _exists(tokenId),\n            \"ERC721Metadata: URI query for nonexistent token\"\n        );\n            \n        string memory currentBaseURI = baseURI;\n\n        return bytes(currentBaseURI).length > 0 ?\n            string(abi.encodePacked(currentBaseURI, tokenId.toString(), baseExtension))\n            : \"\";\n    }\n\n    // only owner\n    function setmaxMintAmount(uint256 _newmaxMintAmount) external onlyOwner {\n        maxMintAmount = _newmaxMintAmount;\n    }\n    \n    function setBaseURI(string memory _newBaseURI) external onlyOwner {\n        baseURI = _newBaseURI;\n    }\n    \n    function setBaseExtension(string memory _newBaseExtension) external onlyOwner {\n        baseExtension = _newBaseExtension;\n    }\n    \n    function pause(bool _state) external onlyOwner {\n        paused = _state;\n    }\n    \n    function withdraw(uint256 _pid) external payable onlyOwner { //will withdraw desired erc20 tokens\n        TokenInfo storage tokens = AllowedCrypto[_pid];\n        IERC20 payToken;\n        payToken = tokens.payToken;\n        payToken.transfer(msg.sender, payToken.balanceOf(address(this)));\n        //payable(msg.sender).transfer(address(this).balance);\n    }\n}",
  "sourcePath": "/Users/faizanabid/NFTStakingWithERC20Rewards/contracts/CollectionWithMultipleTokens.sol",
  "compiler": {
    "name": "solc",
    "version": "0.8.13+commit.abaa5c0e.Emscripten.clang"
  },
  "schemaVersion": "3.4.6",
  "updatedAt": "2022-08-18T05:47:46.414Z",
  "devdoc": {
    "kind": "dev",
    "methods": {
      "approve(address,uint256)": {
        "details": "See {IERC721-approve}."
      },
      "balanceOf(address)": {
        "details": "See {IERC721-balanceOf}."
      },
      "getApproved(uint256)": {
        "details": "See {IERC721-getApproved}."
      },
      "isApprovedForAll(address,address)": {
        "details": "See {IERC721-isApprovedForAll}."
      },
      "name()": {
        "details": "See {IERC721Metadata-name}."
      },
      "owner()": {
        "details": "Returns the address of the current owner."
      },
      "ownerOf(uint256)": {
        "details": "See {IERC721-ownerOf}."
      },
      "renounceOwnership()": {
        "details": "Leaves the contract without owner. It will not be possible to call `onlyOwner` functions anymore. Can only be called by the current owner. NOTE: Renouncing ownership will leave the contract without an owner, thereby removing any functionality that is only available to the owner."
      },
      "safeTransferFrom(address,address,uint256)": {
        "details": "See {IERC721-safeTransferFrom}."
      },
      "safeTransferFrom(address,address,uint256,bytes)": {
        "details": "See {IERC721-safeTransferFrom}."
      },
      "setApprovalForAll(address,bool)": {
        "details": "See {IERC721-setApprovalForAll}."
      },
      "supportsInterface(bytes4)": {
        "details": "See {IERC165-supportsInterface}."
      },
      "symbol()": {
        "details": "See {IERC721Metadata-symbol}."
      },
      "tokenByIndex(uint256)": {
        "details": "See {IERC721Enumerable-tokenByIndex}."
      },
      "tokenOfOwnerByIndex(address,uint256)": {
        "details": "See {IERC721Enumerable-tokenOfOwnerByIndex}."
      },
      "tokenURI(uint256)": {
        "details": "See {IERC721Metadata-tokenURI}."
      },
      "totalSupply()": {
        "details": "See {IERC721Enumerable-totalSupply}."
      },
      "transferFrom(address,address,uint256)": {
        "details": "See {IERC721-transferFrom}."
      },
      "transferOwnership(address)": {
        "details": "Transfers ownership of the contract to a new account (`newOwner`). Can only be called by the current owner."
      }
    },
    "version": 1
  },
  "userdoc": {
    "kind": "user",
    "methods": {},
    "version": 1
  }
}