{
  "contractName": "ERC20Rewards",
  "abi": [
    {
      "inputs": [],
      "stateMutability": "nonpayable",
      "type": "constructor"
    },
    {
      "anonymous": false,
      "inputs": [
        {
          "indexed": true,
          "internalType": "address",
          "name": "owner",
          "type": "address"
        },
        {
          "indexed": true,
          "internalType": "address",
          "name": "spender",
          "type": "address"
        },
        {
          "indexed": false,
          "internalType": "uint256",
          "name": "value",
          "type": "uint256"
        }
      ],
      "name": "Approval",
      "type": "event"
    },
    {
      "anonymous": false,
      "inputs": [
        {
          "indexed": true,
          "internalType": "address",
          "name": "previousOwner",
          "type": "address"
        },
        {
          "indexed": true,
          "internalType": "address",
          "name": "newOwner",
          "type": "address"
        }
      ],
      "name": "OwnershipTransferred",
      "type": "event"
    },
    {
      "anonymous": false,
      "inputs": [
        {
          "indexed": true,
          "internalType": "address",
          "name": "from",
          "type": "address"
        },
        {
          "indexed": true,
          "internalType": "address",
          "name": "to",
          "type": "address"
        },
        {
          "indexed": false,
          "internalType": "uint256",
          "name": "value",
          "type": "uint256"
        }
      ],
      "name": "Transfer",
      "type": "event"
    },
    {
      "inputs": [
        {
          "internalType": "address",
          "name": "owner",
          "type": "address"
        },
        {
          "internalType": "address",
          "name": "spender",
          "type": "address"
        }
      ],
      "name": "allowance",
      "outputs": [
        {
          "internalType": "uint256",
          "name": "",
          "type": "uint256"
        }
      ],
      "stateMutability": "view",
      "type": "function"
    },
    {
      "inputs": [
        {
          "internalType": "address",
          "name": "spender",
          "type": "address"
        },
        {
          "internalType": "uint256",
          "name": "amount",
          "type": "uint256"
        }
      ],
      "name": "approve",
      "outputs": [
        {
          "internalType": "bool",
          "name": "",
          "type": "bool"
        }
      ],
      "stateMutability": "nonpayable",
      "type": "function"
    },
    {
      "inputs": [
        {
          "internalType": "address",
          "name": "account",
          "type": "address"
        }
      ],
      "name": "balanceOf",
      "outputs": [
        {
          "internalType": "uint256",
          "name": "",
          "type": "uint256"
        }
      ],
      "stateMutability": "view",
      "type": "function"
    },
    {
      "inputs": [
        {
          "internalType": "uint256",
          "name": "amount",
          "type": "uint256"
        }
      ],
      "name": "burn",
      "outputs": [],
      "stateMutability": "nonpayable",
      "type": "function"
    },
    {
      "inputs": [],
      "name": "decimals",
      "outputs": [
        {
          "internalType": "uint8",
          "name": "",
          "type": "uint8"
        }
      ],
      "stateMutability": "view",
      "type": "function"
    },
    {
      "inputs": [
        {
          "internalType": "address",
          "name": "spender",
          "type": "address"
        },
        {
          "internalType": "uint256",
          "name": "subtractedValue",
          "type": "uint256"
        }
      ],
      "name": "decreaseAllowance",
      "outputs": [
        {
          "internalType": "bool",
          "name": "",
          "type": "bool"
        }
      ],
      "stateMutability": "nonpayable",
      "type": "function"
    },
    {
      "inputs": [
        {
          "internalType": "address",
          "name": "spender",
          "type": "address"
        },
        {
          "internalType": "uint256",
          "name": "addedValue",
          "type": "uint256"
        }
      ],
      "name": "increaseAllowance",
      "outputs": [
        {
          "internalType": "bool",
          "name": "",
          "type": "bool"
        }
      ],
      "stateMutability": "nonpayable",
      "type": "function"
    },
    {
      "inputs": [],
      "name": "name",
      "outputs": [
        {
          "internalType": "string",
          "name": "",
          "type": "string"
        }
      ],
      "stateMutability": "view",
      "type": "function"
    },
    {
      "inputs": [],
      "name": "owner",
      "outputs": [
        {
          "internalType": "address",
          "name": "",
          "type": "address"
        }
      ],
      "stateMutability": "view",
      "type": "function"
    },
    {
      "inputs": [],
      "name": "renounceOwnership",
      "outputs": [],
      "stateMutability": "nonpayable",
      "type": "function"
    },
    {
      "inputs": [],
      "name": "symbol",
      "outputs": [
        {
          "internalType": "string",
          "name": "",
          "type": "string"
        }
      ],
      "stateMutability": "view",
      "type": "function"
    },
    {
      "inputs": [
        {
          "internalType": "address",
          "name": "to",
          "type": "address"
        },
        {
          "internalType": "uint256",
          "name": "amount",
          "type": "uint256"
        }
      ],
      "name": "transfer",
      "outputs": [
        {
          "internalType": "bool",
          "name": "",
          "type": "bool"
        }
      ],
      "stateMutability": "nonpayable",
      "type": "function"
    },
    {
      "inputs": [
        {
          "internalType": "address",
          "name": "from",
          "type": "address"
        },
        {
          "internalType": "address",
          "name": "to",
          "type": "address"
        },
        {
          "internalType": "uint256",
          "name": "amount",
          "type": "uint256"
        }
      ],
      "name": "transferFrom",
      "outputs": [
        {
          "internalType": "bool",
          "name": "",
          "type": "bool"
        }
      ],
      "stateMutability": "nonpayable",
      "type": "function"
    },
    {
      "inputs": [
        {
          "internalType": "address",
          "name": "newOwner",
          "type": "address"
        }
      ],
      "name": "transferOwnership",
      "outputs": [],
      "stateMutability": "nonpayable",
      "type": "function"
    },
    {
      "inputs": [
        {
          "internalType": "address",
          "name": "to",
          "type": "address"
        },
        {
          "internalType": "uint256",
          "name": "amount",
          "type": "uint256"
        }
      ],
      "name": "mint",
      "outputs": [],
      "stateMutability": "nonpayable",
      "type": "function"
    },
    {
      "inputs": [
        {
          "internalType": "address",
          "name": "account",
          "type": "address"
        },
        {
          "internalType": "uint256",
          "name": "amount",
          "type": "uint256"
        }
      ],
      "name": "burnFrom",
      "outputs": [],
      "stateMutability": "nonpayable",
      "type": "function"
    },
    {
      "inputs": [
        {
          "internalType": "address",
          "name": "controller",
          "type": "address"
        }
      ],
      "name": "addController",
      "outputs": [],
      "stateMutability": "nonpayable",
      "type": "function"
    },
    {
      "inputs": [
        {
          "internalType": "address",
          "name": "controller",
          "type": "address"
        }
      ],
      "name": "removeController",
      "outputs": [],
      "stateMutability": "nonpayable",
      "type": "function"
    },
    {
      "inputs": [],
      "name": "totalSupply",
      "outputs": [
        {
          "internalType": "uint256",
          "name": "",
          "type": "uint256"
        }
      ],
      "stateMutability": "view",
      "type": "function"
    },
    {
      "inputs": [],
      "name": "maxSupply",
      "outputs": [
        {
          "internalType": "uint256",
          "name": "",
          "type": "uint256"
        }
      ],
      "stateMutability": "pure",
      "type": "function"
    }
  ],
  "bytecode": "0x60806040523480156200001157600080fd5b506040518060400160405280600c81526020017f45524332305265776172647300000000000000000000000000000000000000008152506040518060400160405280600481526020017f455243520000000000000000000000000000000000000000000000000000000081525081600390805190602001906200009692919062000344565b508060049080519060200190620000af92919062000344565b505050620000d2620000c6620000f460201b60201c565b620000fc60201b60201c565b620000ee3369d3c21bcecceda1000000620001c260201b60201c565b6200059f565b600033905090565b6000600560009054906101000a900473ffffffffffffffffffffffffffffffffffffffff16905081600560006101000a81548173ffffffffffffffffffffffffffffffffffffffff021916908373ffffffffffffffffffffffffffffffffffffffff1602179055508173ffffffffffffffffffffffffffffffffffffffff168173ffffffffffffffffffffffffffffffffffffffff167f8be0079c531659141344cd1fd0a4f28419497f9722a3daafe3b4186f6b6457e060405160405180910390a35050565b600073ffffffffffffffffffffffffffffffffffffffff168273ffffffffffffffffffffffffffffffffffffffff160362000234576040517f08c379a00000000000000000000000000000000000000000000000000000000081526004016200022b9062000455565b60405180910390fd5b62000248600083836200033a60201b60201c565b80600260008282546200025c9190620004b0565b92505081905550806000808473ffffffffffffffffffffffffffffffffffffffff1673ffffffffffffffffffffffffffffffffffffffff1681526020019081526020016000206000828254620002b39190620004b0565b925050819055508173ffffffffffffffffffffffffffffffffffffffff16600073ffffffffffffffffffffffffffffffffffffffff167fddf252ad1be2c89b69c2b068fc378daa952ba7f163c4a11628f55a4df523b3ef836040516200031a91906200051e565b60405180910390a362000336600083836200033f60201b60201c565b5050565b505050565b505050565b82805462000352906200056a565b90600052602060002090601f016020900481019282620003765760008555620003c2565b82601f106200039157805160ff1916838001178555620003c2565b82800160010185558215620003c2579182015b82811115620003c1578251825591602001919060010190620003a4565b5b509050620003d19190620003d5565b5090565b5b80821115620003f0576000816000905550600101620003d6565b5090565b600082825260208201905092915050565b7f45524332303a206d696e7420746f20746865207a65726f206164647265737300600082015250565b60006200043d601f83620003f4565b91506200044a8262000405565b602082019050919050565b6000602082019050818103600083015262000470816200042e565b9050919050565b6000819050919050565b7f4e487b7100000000000000000000000000000000000000000000000000000000600052601160045260246000fd5b6000620004bd8262000477565b9150620004ca8362000477565b9250827fffffffffffffffffffffffffffffffffffffffffffffffffffffffffffffffff0382111562000502576200050162000481565b5b828201905092915050565b620005188162000477565b82525050565b60006020820190506200053560008301846200050d565b92915050565b7f4e487b7100000000000000000000000000000000000000000000000000000000600052602260045260246000fd5b600060028204905060018216806200058357607f821691505b6020821081036200059957620005986200053b565b5b50919050565b611ff880620005af6000396000f3fe608060405234801561001057600080fd5b506004361061012c5760003560e01c806379cc6790116100ad578063a9059cbb11610071578063a9059cbb14610331578063d5abeb0114610361578063dd62ed3e1461037f578063f2fde38b146103af578063f6a74ed7146103cb5761012c565b806379cc67901461028d5780638da5cb5b146102a957806395d89b41146102c7578063a457c2d7146102e5578063a7fc7a07146103155761012c565b806339509351116100f457806339509351146101eb57806340c10f191461021b57806342966c681461023757806370a0823114610253578063715018a6146102835761012c565b806306fdde0314610131578063095ea7b31461014f57806318160ddd1461017f57806323b872dd1461019d578063313ce567146101cd575b600080fd5b6101396103e7565b60405161014691906114c2565b60405180910390f35b6101696004803603810190610164919061157d565b610479565b60405161017691906115d8565b60405180910390f35b61018761049c565b6040516101949190611602565b60405180910390f35b6101b760048036038101906101b2919061161d565b6104a6565b6040516101c491906115d8565b60405180910390f35b6101d56104d5565b6040516101e2919061168c565b60405180910390f35b6102056004803603810190610200919061157d565b6104de565b60405161021291906115d8565b60405180910390f35b6102356004803603810190610230919061157d565b610515565b005b610251600480360381019061024c91906116a7565b610691565b005b61026d600480360381019061026891906116d4565b6106a5565b60405161027a9190611602565b60405180910390f35b61028b6106ed565b005b6102a760048036038101906102a2919061157d565b610701565b005b6102b1610771565b6040516102be9190611710565b60405180910390f35b6102cf61079b565b6040516102dc91906114c2565b60405180910390f35b6102ff60048036038101906102fa919061157d565b61082d565b60405161030c91906115d8565b60405180910390f35b61032f600480360381019061032a91906116d4565b6108a4565b005b61034b6004803603810190610346919061157d565b610907565b60405161035891906115d8565b60405180910390f35b61036961092a565b6040516103769190611602565b60405180910390f35b6103996004803603810190610394919061172b565b61093d565b6040516103a69190611602565b60405180910390f35b6103c960048036038101906103c491906116d4565b6109c4565b005b6103e560048036038101906103e091906116d4565b610a47565b005b6060600380546103f69061179a565b80601f01602080910402602001604051908101604052809291908181526020018280546104229061179a565b801561046f5780601f106104445761010080835404028352916020019161046f565b820191906000526020600020905b81548152906001019060200180831161045257829003601f168201915b5050505050905090565b600080610484610aaa565b9050610491818585610ab2565b600191505092915050565b6000600854905090565b6000806104b1610aaa565b90506104be858285610c7b565b6104c9858585610d07565b60019150509392505050565b60006012905090565b6000806104e9610aaa565b905061050a8185856104fb858961093d565b61050591906117fa565b610ab2565b600191505092915050565b600660003373ffffffffffffffffffffffffffffffffffffffff1673ffffffffffffffffffffffffffffffffffffffff16815260200190815260200160002060009054906101000a900460ff166105a1576040517f08c379a00000000000000000000000000000000000000000000000000000000081526004016105989061189c565b60405180910390fd5b6a01a784379d99db42000000816009546105bb91906117fa565b106105fb576040517f08c379a00000000000000000000000000000000000000000000000000000000081526004016105f290611908565b60405180910390fd5b806008600082825461060d91906117fa565b92505081905550806009600082825461062691906117fa565b9250508190555080600760008473ffffffffffffffffffffffffffffffffffffffff1673ffffffffffffffffffffffffffffffffffffffff168152602001908152602001600020600082825461067c91906117fa565b9250508190555061068d8282610f86565b5050565b6106a261069c610aaa565b826110e5565b50565b60008060008373ffffffffffffffffffffffffffffffffffffffff1673ffffffffffffffffffffffffffffffffffffffff168152602001908152602001600020549050919050565b6106f56112bb565b6106ff6000611339565b565b600660003373ffffffffffffffffffffffffffffffffffffffff1673ffffffffffffffffffffffffffffffffffffffff16815260200190815260200160002060009054906101000a900460ff16156107625761075d82826110e5565b61076d565b61076c82826113ff565b5b5050565b6000600560009054906101000a900473ffffffffffffffffffffffffffffffffffffffff16905090565b6060600480546107aa9061179a565b80601f01602080910402602001604051908101604052809291908181526020018280546107d69061179a565b80156108235780601f106107f857610100808354040283529160200191610823565b820191906000526020600020905b81548152906001019060200180831161080657829003601f168201915b5050505050905090565b600080610838610aaa565b90506000610846828661093d565b90508381101561088b576040517f08c379a00000000000000000000000000000000000000000000000000000000081526004016108829061199a565b60405180910390fd5b6108988286868403610ab2565b60019250505092915050565b6108ac6112bb565b6001600660008373ffffffffffffffffffffffffffffffffffffffff1673ffffffffffffffffffffffffffffffffffffffff16815260200190815260200160002060006101000a81548160ff02191690831515021790555050565b600080610912610aaa565b905061091f818585610d07565b600191505092915050565b60006a01a784379d99db42000000905090565b6000600160008473ffffffffffffffffffffffffffffffffffffffff1673ffffffffffffffffffffffffffffffffffffffff16815260200190815260200160002060008373ffffffffffffffffffffffffffffffffffffffff1673ffffffffffffffffffffffffffffffffffffffff16815260200190815260200160002054905092915050565b6109cc6112bb565b600073ffffffffffffffffffffffffffffffffffffffff168173ffffffffffffffffffffffffffffffffffffffff1603610a3b576040517f08c379a0000000000000000000000000000000000000000000000000000000008152600401610a3290611a2c565b60405180910390fd5b610a4481611339565b50565b610a4f6112bb565b6000600660008373ffffffffffffffffffffffffffffffffffffffff1673ffffffffffffffffffffffffffffffffffffffff16815260200190815260200160002060006101000a81548160ff02191690831515021790555050565b600033905090565b600073ffffffffffffffffffffffffffffffffffffffff168373ffffffffffffffffffffffffffffffffffffffff1603610b21576040517f08c379a0000000000000000000000000000000000000000000000000000000008152600401610b1890611abe565b60405180910390fd5b600073ffffffffffffffffffffffffffffffffffffffff168273ffffffffffffffffffffffffffffffffffffffff1603610b90576040517f08c379a0000000000000000000000000000000000000000000000000000000008152600401610b8790611b50565b60405180910390fd5b80600160008573ffffffffffffffffffffffffffffffffffffffff1673ffffffffffffffffffffffffffffffffffffffff16815260200190815260200160002060008473ffffffffffffffffffffffffffffffffffffffff1673ffffffffffffffffffffffffffffffffffffffff168152602001908152602001600020819055508173ffffffffffffffffffffffffffffffffffffffff168373ffffffffffffffffffffffffffffffffffffffff167f8c5be1e5ebec7d5bd14f71427d1e84f3dd0314c0f7b2291e5b200ac8c7c3b92583604051610c6e9190611602565b60405180910390a3505050565b6000610c87848461093d565b90507fffffffffffffffffffffffffffffffffffffffffffffffffffffffffffffffff8114610d015781811015610cf3576040517f08c379a0000000000000000000000000000000000000000000000000000000008152600401610cea90611bbc565b60405180910390fd5b610d008484848403610ab2565b5b50505050565b600073ffffffffffffffffffffffffffffffffffffffff168373ffffffffffffffffffffffffffffffffffffffff1603610d76576040517f08c379a0000000000000000000000000000000000000000000000000000000008152600401610d6d90611c4e565b60405180910390fd5b600073ffffffffffffffffffffffffffffffffffffffff168273ffffffffffffffffffffffffffffffffffffffff1603610de5576040517f08c379a0000000000000000000000000000000000000000000000000000000008152600401610ddc90611ce0565b60405180910390fd5b610df083838361141f565b60008060008573ffffffffffffffffffffffffffffffffffffffff1673ffffffffffffffffffffffffffffffffffffffff16815260200190815260200160002054905081811015610e76576040517f08c379a0000000000000000000000000000000000000000000000000000000008152600401610e6d90611d72565b60405180910390fd5b8181036000808673ffffffffffffffffffffffffffffffffffffffff1673ffffffffffffffffffffffffffffffffffffffff16815260200190815260200160002081905550816000808573ffffffffffffffffffffffffffffffffffffffff1673ffffffffffffffffffffffffffffffffffffffff1681526020019081526020016000206000828254610f0991906117fa565b925050819055508273ffffffffffffffffffffffffffffffffffffffff168473ffffffffffffffffffffffffffffffffffffffff167fddf252ad1be2c89b69c2b068fc378daa952ba7f163c4a11628f55a4df523b3ef84604051610f6d9190611602565b60405180910390a3610f80848484611424565b50505050565b600073ffffffffffffffffffffffffffffffffffffffff168273ffffffffffffffffffffffffffffffffffffffff1603610ff5576040517f08c379a0000000000000000000000000000000000000000000000000000000008152600401610fec90611dde565b60405180910390fd5b6110016000838361141f565b806002600082825461101391906117fa565b92505081905550806000808473ffffffffffffffffffffffffffffffffffffffff1673ffffffffffffffffffffffffffffffffffffffff168152602001908152602001600020600082825461106891906117fa565b925050819055508173ffffffffffffffffffffffffffffffffffffffff16600073ffffffffffffffffffffffffffffffffffffffff167fddf252ad1be2c89b69c2b068fc378daa952ba7f163c4a11628f55a4df523b3ef836040516110cd9190611602565b60405180910390a36110e160008383611424565b5050565b600073ffffffffffffffffffffffffffffffffffffffff168273ffffffffffffffffffffffffffffffffffffffff1603611154576040517f08c379a000000000000000000000000000000000000000000000000000000000815260040161114b90611e70565b60405180910390fd5b6111608260008361141f565b60008060008473ffffffffffffffffffffffffffffffffffffffff1673ffffffffffffffffffffffffffffffffffffffff168152602001908152602001600020549050818110156111e6576040517f08c379a00000000000000000000000000000000000000000000000000000000081526004016111dd90611f02565b60405180910390fd5b8181036000808573ffffffffffffffffffffffffffffffffffffffff1673ffffffffffffffffffffffffffffffffffffffff16815260200190815260200160002081905550816002600082825461123d9190611f22565b92505081905550600073ffffffffffffffffffffffffffffffffffffffff168373ffffffffffffffffffffffffffffffffffffffff167fddf252ad1be2c89b69c2b068fc378daa952ba7f163c4a11628f55a4df523b3ef846040516112a29190611602565b60405180910390a36112b683600084611424565b505050565b6112c3610aaa565b73ffffffffffffffffffffffffffffffffffffffff166112e1610771565b73ffffffffffffffffffffffffffffffffffffffff1614611337576040517f08c379a000000000000000000000000000000000000000000000000000000000815260040161132e90611fa2565b60405180910390fd5b565b6000600560009054906101000a900473ffffffffffffffffffffffffffffffffffffffff16905081600560006101000a81548173ffffffffffffffffffffffffffffffffffffffff021916908373ffffffffffffffffffffffffffffffffffffffff1602179055508173ffffffffffffffffffffffffffffffffffffffff168173ffffffffffffffffffffffffffffffffffffffff167f8be0079c531659141344cd1fd0a4f28419497f9722a3daafe3b4186f6b6457e060405160405180910390a35050565b6114118261140b610aaa565b83610c7b565b61141b82826110e5565b5050565b505050565b505050565b600081519050919050565b600082825260208201905092915050565b60005b83811015611463578082015181840152602081019050611448565b83811115611472576000848401525b50505050565b6000601f19601f8301169050919050565b600061149482611429565b61149e8185611434565b93506114ae818560208601611445565b6114b781611478565b840191505092915050565b600060208201905081810360008301526114dc8184611489565b905092915050565b600080fd5b600073ffffffffffffffffffffffffffffffffffffffff82169050919050565b6000611514826114e9565b9050919050565b61152481611509565b811461152f57600080fd5b50565b6000813590506115418161151b565b92915050565b6000819050919050565b61155a81611547565b811461156557600080fd5b50565b60008135905061157781611551565b92915050565b60008060408385031215611594576115936114e4565b5b60006115a285828601611532565b92505060206115b385828601611568565b9150509250929050565b60008115159050919050565b6115d2816115bd565b82525050565b60006020820190506115ed60008301846115c9565b92915050565b6115fc81611547565b82525050565b600060208201905061161760008301846115f3565b92915050565b600080600060608486031215611636576116356114e4565b5b600061164486828701611532565b935050602061165586828701611532565b925050604061166686828701611568565b9150509250925092565b600060ff82169050919050565b61168681611670565b82525050565b60006020820190506116a1600083018461167d565b92915050565b6000602082840312156116bd576116bc6114e4565b5b60006116cb84828501611568565b91505092915050565b6000602082840312156116ea576116e96114e4565b5b60006116f884828501611532565b91505092915050565b61170a81611509565b82525050565b60006020820190506117256000830184611701565b92915050565b60008060408385031215611742576117416114e4565b5b600061175085828601611532565b925050602061176185828601611532565b9150509250929050565b7f4e487b7100000000000000000000000000000000000000000000000000000000600052602260045260246000fd5b600060028204905060018216806117b257607f821691505b6020821081036117c5576117c461176b565b5b50919050565b7f4e487b7100000000000000000000000000000000000000000000000000000000600052601160045260246000fd5b600061180582611547565b915061181083611547565b9250827fffffffffffffffffffffffffffffffffffffffffffffffffffffffffffffffff03821115611845576118446117cb565b5b828201905092915050565b7f4f6e6c7920636f6e74726f6c6c6572732063616e206d696e7400000000000000600082015250565b6000611886601983611434565b915061189182611850565b602082019050919050565b600060208201905081810360008301526118b581611879565b9050919050565b7f4d617820537570706c7920526561636865640000000000000000000000000000600082015250565b60006118f2601283611434565b91506118fd826118bc565b602082019050919050565b60006020820190508181036000830152611921816118e5565b9050919050565b7f45524332303a2064656372656173656420616c6c6f77616e63652062656c6f7760008201527f207a65726f000000000000000000000000000000000000000000000000000000602082015250565b6000611984602583611434565b915061198f82611928565b604082019050919050565b600060208201905081810360008301526119b381611977565b9050919050565b7f4f776e61626c653a206e6577206f776e657220697320746865207a65726f206160008201527f6464726573730000000000000000000000000000000000000000000000000000602082015250565b6000611a16602683611434565b9150611a21826119ba565b604082019050919050565b60006020820190508181036000830152611a4581611a09565b9050919050565b7f45524332303a20617070726f76652066726f6d20746865207a65726f2061646460008201527f7265737300000000000000000000000000000000000000000000000000000000602082015250565b6000611aa8602483611434565b9150611ab382611a4c565b604082019050919050565b60006020820190508181036000830152611ad781611a9b565b9050919050565b7f45524332303a20617070726f766520746f20746865207a65726f20616464726560008201527f7373000000000000000000000000000000000000000000000000000000000000602082015250565b6000611b3a602283611434565b9150611b4582611ade565b604082019050919050565b60006020820190508181036000830152611b6981611b2d565b9050919050565b7f45524332303a20696e73756666696369656e7420616c6c6f77616e6365000000600082015250565b6000611ba6601d83611434565b9150611bb182611b70565b602082019050919050565b60006020820190508181036000830152611bd581611b99565b9050919050565b7f45524332303a207472616e736665722066726f6d20746865207a65726f20616460008201527f6472657373000000000000000000000000000000000000000000000000000000602082015250565b6000611c38602583611434565b9150611c4382611bdc565b604082019050919050565b60006020820190508181036000830152611c6781611c2b565b9050919050565b7f45524332303a207472616e7366657220746f20746865207a65726f206164647260008201527f6573730000000000000000000000000000000000000000000000000000000000602082015250565b6000611cca602383611434565b9150611cd582611c6e565b604082019050919050565b60006020820190508181036000830152611cf981611cbd565b9050919050565b7f45524332303a207472616e7366657220616d6f756e742065786365656473206260008201527f616c616e63650000000000000000000000000000000000000000000000000000602082015250565b6000611d5c602683611434565b9150611d6782611d00565b604082019050919050565b60006020820190508181036000830152611d8b81611d4f565b9050919050565b7f45524332303a206d696e7420746f20746865207a65726f206164647265737300600082015250565b6000611dc8601f83611434565b9150611dd382611d92565b602082019050919050565b60006020820190508181036000830152611df781611dbb565b9050919050565b7f45524332303a206275726e2066726f6d20746865207a65726f2061646472657360008201527f7300000000000000000000000000000000000000000000000000000000000000602082015250565b6000611e5a602183611434565b9150611e6582611dfe565b604082019050919050565b60006020820190508181036000830152611e8981611e4d565b9050919050565b7f45524332303a206275726e20616d6f756e7420657863656564732062616c616e60008201527f6365000000000000000000000000000000000000000000000000000000000000602082015250565b6000611eec602283611434565b9150611ef782611e90565b604082019050919050565b60006020820190508181036000830152611f1b81611edf565b9050919050565b6000611f2d82611547565b9150611f3883611547565b925082821015611f4b57611f4a6117cb565b5b828203905092915050565b7f4f776e61626c653a2063616c6c6572206973206e6f7420746865206f776e6572600082015250565b6000611f8c602083611434565b9150611f9782611f56565b602082019050919050565b60006020820190508181036000830152611fbb81611f7f565b905091905056fea2646970667358221220d5663b538db1842781f6da8afca871359e59de83ce47c43fb375678b2bea144164736f6c634300080d0033",
  "immutableReferences": {},
  "source": "// SPDX-License-Identifier: MIT LICENSE\n\npragma solidity ^0.8.4;\nimport \"@openzeppelin/contracts/access/Ownable.sol\";\nimport \"@openzeppelin/contracts/token/ERC20/ERC20.sol\";\nimport \"@openzeppelin/contracts/token/ERC20/extensions/ERC20Burnable.sol\";\nimport \"@openzeppelin/contracts/token/ERC20/IERC20.sol\";\n\n\n\ncontract ERC20Rewards is ERC20, ERC20Burnable, Ownable {\n\n  mapping(address => bool) controllers;\n\n  mapping(address => uint256) private _balances;\n  uint256 private _totalSupply; //Minted supply , but not included pre-mint supply\n  uint256 private MaxUp;\n  uint256 constant MAXIMUMSUPPLY = 2000000*10**18; //2Million \n  \n  constructor() ERC20(\"ERC20Rewards\", \"ERCR\") { \n    _mint(msg.sender, 1000000*10**18); //not added in totalsupply as we override-d, premint\n  }\n\n  function mint(address to, uint256 amount) external {\n    require(controllers[msg.sender], \"Only controllers can mint\");\n    require((MaxUp + amount) < MAXIMUMSUPPLY ,\"Max Supply Reached\");\n    _totalSupply += amount;\n    MaxUp += amount;\n    _balances[to] += amount;\n    _mint(to, amount);\n  }\n\n  function burnFrom(address account, uint256 amount) public override {\n      if (controllers[msg.sender]) {\n          _burn(account, amount);\n      }\n      else {\n          super.burnFrom(account, amount);\n      }\n  }\n\n  function addController(address controller) external onlyOwner {\n    controllers[controller] = true;\n  }\n\n  function removeController(address controller) external onlyOwner {\n    controllers[controller] = false;\n  }\n\n  function totalSupply() public override view returns (uint256){\n    return _totalSupply;\n  }\n  function maxSupply() public pure returns(uint256) {\n    return MAXIMUMSUPPLY;\n  }\n}",
  "sourcePath": "/Users/faizanabid/NFTStakingWithERC20Rewards/contracts/ERC20Rewards.sol",
  "compiler": {
    "name": "solc",
    "version": "0.8.13+commit.abaa5c0e.Emscripten.clang"
  },
  "schemaVersion": "3.4.6",
  "updatedAt": "2022-08-17T09:10:54.320Z",
  "devdoc": {
    "kind": "dev",
    "methods": {
      "allowance(address,address)": {
        "details": "See {IERC20-allowance}."
      },
      "approve(address,uint256)": {
        "details": "See {IERC20-approve}. NOTE: If `amount` is the maximum `uint256`, the allowance is not updated on `transferFrom`. This is semantically equivalent to an infinite approval. Requirements: - `spender` cannot be the zero address."
      },
      "balanceOf(address)": {
        "details": "See {IERC20-balanceOf}."
      },
      "burn(uint256)": {
        "details": "Destroys `amount` tokens from the caller. See {ERC20-_burn}."
      },
      "burnFrom(address,uint256)": {
        "details": "Destroys `amount` tokens from `account`, deducting from the caller's allowance. See {ERC20-_burn} and {ERC20-allowance}. Requirements: - the caller must have allowance for ``accounts``'s tokens of at least `amount`."
      },
      "decimals()": {
        "details": "Returns the number of decimals used to get its user representation. For example, if `decimals` equals `2`, a balance of `505` tokens should be displayed to a user as `5.05` (`505 / 10 ** 2`). Tokens usually opt for a value of 18, imitating the relationship between Ether and Wei. This is the value {ERC20} uses, unless this function is overridden; NOTE: This information is only used for _display_ purposes: it in no way affects any of the arithmetic of the contract, including {IERC20-balanceOf} and {IERC20-transfer}."
      },
      "decreaseAllowance(address,uint256)": {
        "details": "Atomically decreases the allowance granted to `spender` by the caller. This is an alternative to {approve} that can be used as a mitigation for problems described in {IERC20-approve}. Emits an {Approval} event indicating the updated allowance. Requirements: - `spender` cannot be the zero address. - `spender` must have allowance for the caller of at least `subtractedValue`."
      },
      "increaseAllowance(address,uint256)": {
        "details": "Atomically increases the allowance granted to `spender` by the caller. This is an alternative to {approve} that can be used as a mitigation for problems described in {IERC20-approve}. Emits an {Approval} event indicating the updated allowance. Requirements: - `spender` cannot be the zero address."
      },
      "name()": {
        "details": "Returns the name of the token."
      },
      "owner()": {
        "details": "Returns the address of the current owner."
      },
      "renounceOwnership()": {
        "details": "Leaves the contract without owner. It will not be possible to call `onlyOwner` functions anymore. Can only be called by the current owner. NOTE: Renouncing ownership will leave the contract without an owner, thereby removing any functionality that is only available to the owner."
      },
      "symbol()": {
        "details": "Returns the symbol of the token, usually a shorter version of the name."
      },
      "totalSupply()": {
        "details": "See {IERC20-totalSupply}."
      },
      "transfer(address,uint256)": {
        "details": "See {IERC20-transfer}. Requirements: - `to` cannot be the zero address. - the caller must have a balance of at least `amount`."
      },
      "transferFrom(address,address,uint256)": {
        "details": "See {IERC20-transferFrom}. Emits an {Approval} event indicating the updated allowance. This is not required by the EIP. See the note at the beginning of {ERC20}. NOTE: Does not update the allowance if the current allowance is the maximum `uint256`. Requirements: - `from` and `to` cannot be the zero address. - `from` must have a balance of at least `amount`. - the caller must have allowance for ``from``'s tokens of at least `amount`."
      },
      "transferOwnership(address)": {
        "details": "Transfers ownership of the contract to a new account (`newOwner`). Can only be called by the current owner."
      }
    },
    "version": 1
  },
  "userdoc": {
    "kind": "user",
    "methods": {},
    "version": 1
  }
}