{
  "contractName": "NFTStaking",
  "abi": [
    {
      "inputs": [
        {
          "internalType": "contract ERC721Enumerable",
          "name": "_nft",
          "type": "address"
        },
        {
          "internalType": "contract ERC20Rewards",
          "name": "_token",
          "type": "address"
        }
      ],
      "stateMutability": "nonpayable",
      "type": "constructor"
    },
    {
      "anonymous": false,
      "inputs": [
        {
          "indexed": false,
          "internalType": "address",
          "name": "owner",
          "type": "address"
        },
        {
          "indexed": false,
          "internalType": "uint256",
          "name": "amount",
          "type": "uint256"
        }
      ],
      "name": "Claimed",
      "type": "event"
    },
    {
      "anonymous": false,
      "inputs": [
        {
          "indexed": false,
          "internalType": "address",
          "name": "owner",
          "type": "address"
        },
        {
          "indexed": false,
          "internalType": "uint256",
          "name": "tokenId",
          "type": "uint256"
        },
        {
          "indexed": false,
          "internalType": "uint256",
          "name": "value",
          "type": "uint256"
        }
      ],
      "name": "NFTStaked",
      "type": "event"
    },
    {
      "anonymous": false,
      "inputs": [
        {
          "indexed": false,
          "internalType": "address",
          "name": "owner",
          "type": "address"
        },
        {
          "indexed": false,
          "internalType": "uint256",
          "name": "tokenId",
          "type": "uint256"
        },
        {
          "indexed": false,
          "internalType": "uint256",
          "name": "value",
          "type": "uint256"
        }
      ],
      "name": "NFTUnstaked",
      "type": "event"
    },
    {
      "anonymous": false,
      "inputs": [
        {
          "indexed": true,
          "internalType": "address",
          "name": "previousOwner",
          "type": "address"
        },
        {
          "indexed": true,
          "internalType": "address",
          "name": "newOwner",
          "type": "address"
        }
      ],
      "name": "OwnershipTransferred",
      "type": "event"
    },
    {
      "inputs": [],
      "name": "owner",
      "outputs": [
        {
          "internalType": "address",
          "name": "",
          "type": "address"
        }
      ],
      "stateMutability": "view",
      "type": "function"
    },
    {
      "inputs": [],
      "name": "renounceOwnership",
      "outputs": [],
      "stateMutability": "nonpayable",
      "type": "function"
    },
    {
      "inputs": [],
      "name": "totalStaked",
      "outputs": [
        {
          "internalType": "uint256",
          "name": "",
          "type": "uint256"
        }
      ],
      "stateMutability": "view",
      "type": "function"
    },
    {
      "inputs": [
        {
          "internalType": "address",
          "name": "newOwner",
          "type": "address"
        }
      ],
      "name": "transferOwnership",
      "outputs": [],
      "stateMutability": "nonpayable",
      "type": "function"
    },
    {
      "inputs": [
        {
          "internalType": "uint256",
          "name": "",
          "type": "uint256"
        }
      ],
      "name": "vault",
      "outputs": [
        {
          "internalType": "uint24",
          "name": "tokenId",
          "type": "uint24"
        },
        {
          "internalType": "uint48",
          "name": "timestamp",
          "type": "uint48"
        },
        {
          "internalType": "address",
          "name": "owner",
          "type": "address"
        }
      ],
      "stateMutability": "view",
      "type": "function"
    },
    {
      "inputs": [
        {
          "internalType": "uint256[]",
          "name": "tokenIds",
          "type": "uint256[]"
        }
      ],
      "name": "stake",
      "outputs": [],
      "stateMutability": "nonpayable",
      "type": "function"
    },
    {
      "inputs": [
        {
          "internalType": "uint256[]",
          "name": "tokenIds",
          "type": "uint256[]"
        }
      ],
      "name": "claim",
      "outputs": [],
      "stateMutability": "nonpayable",
      "type": "function"
    },
    {
      "inputs": [
        {
          "internalType": "address",
          "name": "account",
          "type": "address"
        },
        {
          "internalType": "uint256[]",
          "name": "tokenIds",
          "type": "uint256[]"
        }
      ],
      "name": "claimForAddress",
      "outputs": [],
      "stateMutability": "nonpayable",
      "type": "function"
    },
    {
      "inputs": [
        {
          "internalType": "uint256[]",
          "name": "tokenIds",
          "type": "uint256[]"
        }
      ],
      "name": "unstake",
      "outputs": [],
      "stateMutability": "nonpayable",
      "type": "function"
    },
    {
      "inputs": [
        {
          "internalType": "uint256[]",
          "name": "tokenIds",
          "type": "uint256[]"
        }
      ],
      "name": "earningInfo",
      "outputs": [
        {
          "internalType": "uint256[2]",
          "name": "info",
          "type": "uint256[2]"
        }
      ],
      "stateMutability": "view",
      "type": "function"
    },
    {
      "inputs": [
        {
          "internalType": "address",
          "name": "account",
          "type": "address"
        }
      ],
      "name": "balanceOf",
      "outputs": [
        {
          "internalType": "uint256",
          "name": "",
          "type": "uint256"
        }
      ],
      "stateMutability": "view",
      "type": "function"
    },
    {
      "inputs": [
        {
          "internalType": "address",
          "name": "account",
          "type": "address"
        }
      ],
      "name": "tokensOfOwner",
      "outputs": [
        {
          "internalType": "uint256[]",
          "name": "ownerTokens",
          "type": "uint256[]"
        }
      ],
      "stateMutability": "view",
      "type": "function"
    },
    {
      "inputs": [
        {
          "internalType": "address",
          "name": "",
          "type": "address"
        },
        {
          "internalType": "address",
          "name": "from",
          "type": "address"
        },
        {
          "internalType": "uint256",
          "name": "",
          "type": "uint256"
        },
        {
          "internalType": "bytes",
          "name": "",
          "type": "bytes"
        }
      ],
      "name": "onERC721Received",
      "outputs": [
        {
          "internalType": "bytes4",
          "name": "",
          "type": "bytes4"
        }
      ],
      "stateMutability": "pure",
      "type": "function"
    }
  ],
  "bytecode": "0x60806040523480156200001157600080fd5b50604051620023d9380380620023d9833981810160405281019062000037919062000270565b620000576200004b620000e160201b60201c565b620000e960201b60201c565b81600260006101000a81548173ffffffffffffffffffffffffffffffffffffffff021916908373ffffffffffffffffffffffffffffffffffffffff16021790555080600360006101000a81548173ffffffffffffffffffffffffffffffffffffffff021916908373ffffffffffffffffffffffffffffffffffffffff1602179055505050620002b7565b600033905090565b60008060009054906101000a900473ffffffffffffffffffffffffffffffffffffffff169050816000806101000a81548173ffffffffffffffffffffffffffffffffffffffff021916908373ffffffffffffffffffffffffffffffffffffffff1602179055508173ffffffffffffffffffffffffffffffffffffffff168173ffffffffffffffffffffffffffffffffffffffff167f8be0079c531659141344cd1fd0a4f28419497f9722a3daafe3b4186f6b6457e060405160405180910390a35050565b600080fd5b600073ffffffffffffffffffffffffffffffffffffffff82169050919050565b6000620001df82620001b2565b9050919050565b6000620001f382620001d2565b9050919050565b6200020581620001e6565b81146200021157600080fd5b50565b6000815190506200022581620001fa565b92915050565b60006200023882620001d2565b9050919050565b6200024a816200022b565b81146200025657600080fd5b50565b6000815190506200026a816200023f565b92915050565b600080604083850312156200028a5762000289620001ad565b5b60006200029a8582860162000214565b9250506020620002ad8582860162000259565b9150509250929050565b61211280620002c76000396000f3fe608060405234801561001057600080fd5b50600436106100cf5760003560e01c8063817b1cd21161008c5780638da5cb5b116100665780638da5cb5b14610226578063c36be35714610244578063e449f34114610260578063f2fde38b1461027c576100cf565b8063817b1cd2146101a657806381a36fb6146101c45780638462151c146101f6576100cf565b80630fbf0a93146100d4578063150b7a02146100f05780633562b086146101205780636ba4c1381461015057806370a082311461016c578063715018a61461019c575b600080fd5b6100ee60048036038101906100e991906115ab565b610298565b005b61010a600480360381019061010591906116e2565b610626565b60405161011791906117a5565b60405180910390f35b61013a600480360381019061013591906115ab565b6106a9565b604051610147919061186b565b60405180910390f35b61016a600480360381019061016591906115ab565b610827565b005b61018660048036038101906101819190611886565b610838565b60405161019391906118c2565b60405180910390f35b6101a4610979565b005b6101ae61098d565b6040516101bb91906118c2565b60405180910390f35b6101de60048036038101906101d991906118dd565b610993565b6040516101ed93929190611958565b60405180910390f35b610210600480360381019061020b9190611886565b6109fe565b60405161021d9190611a26565b60405180910390f35b61022e610c7a565b60405161023b9190611a48565b60405180910390f35b61025e60048036038101906102599190611a63565b610ca3565b005b61027a600480360381019061027591906115ab565b610cb5565b005b61029660048036038101906102919190611886565b610cc6565b005b600082829050600160008282546102af9190611af2565b9250508190555060005b83839050811015610620578383828181106102d7576102d6611b48565b5b9050602002013591503373ffffffffffffffffffffffffffffffffffffffff16600260009054906101000a900473ffffffffffffffffffffffffffffffffffffffff1673ffffffffffffffffffffffffffffffffffffffff16636352211e846040518263ffffffff1660e01b815260040161035291906118c2565b602060405180830381865afa15801561036f573d6000803e3d6000fd5b505050506040513d601f19601f820116820180604052508101906103939190611b8c565b73ffffffffffffffffffffffffffffffffffffffff16146103e9576040517f08c379a00000000000000000000000000000000000000000000000000000000081526004016103e090611c16565b60405180910390fd5b60006004600084815260200190815260200160002060000160009054906101000a900462ffffff1662ffffff1614610456576040517f08c379a000000000000000000000000000000000000000000000000000000000815260040161044d90611c82565b60405180910390fd5b600260009054906101000a900473ffffffffffffffffffffffffffffffffffffffff1673ffffffffffffffffffffffffffffffffffffffff166323b872dd3330856040518463ffffffff1660e01b81526004016104b593929190611ca2565b600060405180830381600087803b1580156104cf57600080fd5b505af11580156104e3573d6000803e3d6000fd5b505050507f36b3725f1783bad4ff05b7f4c077c3aa68eeb23a4d054ba189db4d01ac278d3933834260405161051a93929190611cd9565b60405180910390a160405180606001604052808362ffffff1681526020014265ffffffffffff1681526020013373ffffffffffffffffffffffffffffffffffffffff168152506004600084815260200190815260200160002060008201518160000160006101000a81548162ffffff021916908362ffffff16021790555060208201518160000160036101000a81548165ffffffffffff021916908365ffffffffffff16021790555060408201518160000160096101000a81548173ffffffffffffffffffffffffffffffffffffffff021916908373ffffffffffffffffffffffffffffffffffffffff160217905550905050808061061890611d10565b9150506102b9565b50505050565b60008073ffffffffffffffffffffffffffffffffffffffff168573ffffffffffffffffffffffffffffffffffffffff1614610696576040517f08c379a000000000000000000000000000000000000000000000000000000000815260040161068d90611dca565b60405180910390fd5b63150b7a0260e01b905095945050505050565b6106b161151a565b60008060009050600080600460008581526020019081526020016000206040518060600160405290816000820160009054906101000a900462ffffff1662ffffff1662ffffff1681526020016000820160039054906101000a900465ffffffffffff1665ffffffffffff1665ffffffffffff1681526020016000820160099054906101000a900473ffffffffffffffffffffffffffffffffffffffff1673ffffffffffffffffffffffffffffffffffffffff1673ffffffffffffffffffffffffffffffffffffffff168152505090506000816020015165ffffffffffff1690506201518081426107a19190611dea565b69152d02c7e14af68000006107b69190611e1e565b6107c09190611ea7565b836107cb9190611af2565b9250600062015180670de0b6b3a7640000866107e79190611e1e565b6107f19190611ea7565b9050620186a0816108029190611ea7565b9050604051806040016040528085815260200182815250965050505050505092915050565b6108343383836000610d49565b5050565b600080600090506000600260009054906101000a900473ffffffffffffffffffffffffffffffffffffffff1673ffffffffffffffffffffffffffffffffffffffff166318160ddd6040518163ffffffff1660e01b8152600401602060405180830381865afa1580156108ae573d6000803e3d6000fd5b505050506040513d601f19601f820116820180604052508101906108d29190611eed565b90506000600190505b81811161096e578473ffffffffffffffffffffffffffffffffffffffff166004600083815260200190815260200160002060000160099054906101000a900473ffffffffffffffffffffffffffffffffffffffff1673ffffffffffffffffffffffffffffffffffffffff160361095b576001836109589190611af2565b92505b808061096690611d10565b9150506108db565b508192505050919050565b6109816110fc565b61098b600061117a565b565b60015481565b60046020528060005260406000206000915090508060000160009054906101000a900462ffffff16908060000160039054906101000a900465ffffffffffff16908060000160099054906101000a900473ffffffffffffffffffffffffffffffffffffffff16905083565b60606000600260009054906101000a900473ffffffffffffffffffffffffffffffffffffffff1673ffffffffffffffffffffffffffffffffffffffff166318160ddd6040518163ffffffff1660e01b8152600401602060405180830381865afa158015610a6f573d6000803e3d6000fd5b505050506040513d601f19601f82011682018060405250810190610a939190611eed565b905060008167ffffffffffffffff811115610ab157610ab0611f1a565b5b604051908082528060200260200182016040528015610adf5781602001602082028036833780820191505090505b509050600080600190505b838111610bc7578573ffffffffffffffffffffffffffffffffffffffff166004600083815260200190815260200160002060000160099054906101000a900473ffffffffffffffffffffffffffffffffffffffff1673ffffffffffffffffffffffffffffffffffffffff1603610bb4576004600082815260200190815260200160002060000160009054906101000a900462ffffff1662ffffff16838381518110610b9857610b97611b48565b5b602002602001018181525050600182610bb19190611af2565b91505b8080610bbf90611d10565b915050610aea565b5060008167ffffffffffffffff811115610be457610be3611f1a565b5b604051908082528060200260200182016040528015610c125781602001602082028036833780820191505090505b50905060005b82811015610c6d57838181518110610c3357610c32611b48565b5b6020026020010151828281518110610c4e57610c4d611b48565b5b6020026020010181815250508080610c6590611d10565b915050610c18565b5080945050505050919050565b60008060009054906101000a900473ffffffffffffffffffffffffffffffffffffffff16905090565b610cb08383836000610d49565b505050565b610cc23383836001610d49565b5050565b610cce6110fc565b600073ffffffffffffffffffffffffffffffffffffffff168173ffffffffffffffffffffffffffffffffffffffff1603610d3d576040517f08c379a0000000000000000000000000000000000000000000000000000000008152600401610d3490611fbb565b60405180910390fd5b610d468161117a565b50565b6000806000905060005b8585905081101561100057858582818110610d7157610d70611b48565b5b9050602002013592506000600460008581526020019081526020016000206040518060600160405290816000820160009054906101000a900462ffffff1662ffffff1662ffffff1681526020016000820160039054906101000a900465ffffffffffff1665ffffffffffff1665ffffffffffff1681526020016000820160099054906101000a900473ffffffffffffffffffffffffffffffffffffffff1673ffffffffffffffffffffffffffffffffffffffff1673ffffffffffffffffffffffffffffffffffffffff168152505090508773ffffffffffffffffffffffffffffffffffffffff16816040015173ffffffffffffffffffffffffffffffffffffffff1614610eb3576040517f08c379a0000000000000000000000000000000000000000000000000000000008152600401610eaa90612027565b60405180910390fd5b6000816020015165ffffffffffff169050620151808142610ed49190611dea565b69152d02c7e14af6800000610ee99190611e1e565b610ef39190611ea7565b84610efe9190611af2565b935060405180606001604052808662ffffff1681526020014265ffffffffffff1681526020018a73ffffffffffffffffffffffffffffffffffffffff168152506004600087815260200190815260200160002060008201518160000160006101000a81548162ffffff021916908362ffffff16021790555060208201518160000160036101000a81548165ffffffffffff021916908365ffffffffffff16021790555060408201518160000160096101000a81548173ffffffffffffffffffffffffffffffffffffffff021916908373ffffffffffffffffffffffffffffffffffffffff16021790555090505050508080610ff890611d10565b915050610d53565b5060008111156110a957600a816110179190611ea7565b9050600360009054906101000a900473ffffffffffffffffffffffffffffffffffffffff1673ffffffffffffffffffffffffffffffffffffffff166340c10f1987836040518363ffffffff1660e01b8152600401611076929190612047565b600060405180830381600087803b15801561109057600080fd5b505af11580156110a4573d6000803e3d6000fd5b505050505b82156110bb576110ba86868661123e565b5b7fd8138f8a3f377c5259ca548e70e4c2de94f129f5a11036a15b69513cba2b426a86826040516110ec929190612047565b60405180910390a1505050505050565b611104611512565b73ffffffffffffffffffffffffffffffffffffffff16611122610c7a565b73ffffffffffffffffffffffffffffffffffffffff1614611178576040517f08c379a000000000000000000000000000000000000000000000000000000000815260040161116f906120bc565b60405180910390fd5b565b60008060009054906101000a900473ffffffffffffffffffffffffffffffffffffffff169050816000806101000a81548173ffffffffffffffffffffffffffffffffffffffff021916908373ffffffffffffffffffffffffffffffffffffffff1602179055508173ffffffffffffffffffffffffffffffffffffffff168173ffffffffffffffffffffffffffffffffffffffff167f8be0079c531659141344cd1fd0a4f28419497f9722a3daafe3b4186f6b6457e060405160405180910390a35050565b600082829050600160008282546112559190611dea565b9250508190555060005b8383905081101561150b5783838281811061127d5761127c611b48565b5b9050602002013591506000600460008481526020019081526020016000206040518060600160405290816000820160009054906101000a900462ffffff1662ffffff1662ffffff1681526020016000820160039054906101000a900465ffffffffffff1665ffffffffffff1665ffffffffffff1681526020016000820160099054906101000a900473ffffffffffffffffffffffffffffffffffffffff1673ffffffffffffffffffffffffffffffffffffffff1673ffffffffffffffffffffffffffffffffffffffff168152505090503373ffffffffffffffffffffffffffffffffffffffff16816040015173ffffffffffffffffffffffffffffffffffffffff16146113bf576040517f08c379a00000000000000000000000000000000000000000000000000000000081526004016113b690612027565b60405180910390fd5b60046000848152602001908152602001600020600080820160006101000a81549062ffffff02191690556000820160036101000a81549065ffffffffffff02191690556000820160096101000a81549073ffffffffffffffffffffffffffffffffffffffff021916905550507fc486b9458a8637650d84d262414833a5a457bc91ae86b7da110386c8c3fa255b86844260405161145e93929190611cd9565b60405180910390a1600260009054906101000a900473ffffffffffffffffffffffffffffffffffffffff1673ffffffffffffffffffffffffffffffffffffffff166323b872dd3088866040518463ffffffff1660e01b81526004016114c593929190611ca2565b600060405180830381600087803b1580156114df57600080fd5b505af11580156114f3573d6000803e3d6000fd5b5050505050808061150390611d10565b91505061125f565b5050505050565b600033905090565b6040518060400160405280600290602082028036833780820191505090505090565b600080fd5b600080fd5b600080fd5b600080fd5b600080fd5b60008083601f84011261156b5761156a611546565b5b8235905067ffffffffffffffff8111156115885761158761154b565b5b6020830191508360208202830111156115a4576115a3611550565b5b9250929050565b600080602083850312156115c2576115c161153c565b5b600083013567ffffffffffffffff8111156115e0576115df611541565b5b6115ec85828601611555565b92509250509250929050565b600073ffffffffffffffffffffffffffffffffffffffff82169050919050565b6000611623826115f8565b9050919050565b61163381611618565b811461163e57600080fd5b50565b6000813590506116508161162a565b92915050565b6000819050919050565b61166981611656565b811461167457600080fd5b50565b60008135905061168681611660565b92915050565b60008083601f8401126116a2576116a1611546565b5b8235905067ffffffffffffffff8111156116bf576116be61154b565b5b6020830191508360018202830111156116db576116da611550565b5b9250929050565b6000806000806000608086880312156116fe576116fd61153c565b5b600061170c88828901611641565b955050602061171d88828901611641565b945050604061172e88828901611677565b935050606086013567ffffffffffffffff81111561174f5761174e611541565b5b61175b8882890161168c565b92509250509295509295909350565b60007fffffffff0000000000000000000000000000000000000000000000000000000082169050919050565b61179f8161176a565b82525050565b60006020820190506117ba6000830184611796565b92915050565b600060029050919050565b600081905092915050565b6000819050919050565b6117e981611656565b82525050565b60006117fb83836117e0565b60208301905092915050565b6000602082019050919050565b61181d816117c0565b61182781846117cb565b9250611832826117d6565b8060005b8381101561186357815161184a87826117ef565b965061185583611807565b925050600181019050611836565b505050505050565b60006040820190506118806000830184611814565b92915050565b60006020828403121561189c5761189b61153c565b5b60006118aa84828501611641565b91505092915050565b6118bc81611656565b82525050565b60006020820190506118d760008301846118b3565b92915050565b6000602082840312156118f3576118f261153c565b5b600061190184828501611677565b91505092915050565b600062ffffff82169050919050565b6119228161190a565b82525050565b600065ffffffffffff82169050919050565b61194381611928565b82525050565b61195281611618565b82525050565b600060608201905061196d6000830186611919565b61197a602083018561193a565b6119876040830184611949565b949350505050565b600081519050919050565b600082825260208201905092915050565b6000819050602082019050919050565b6000602082019050919050565b60006119d38261198f565b6119dd818561199a565b93506119e8836119ab565b8060005b83811015611a19578151611a0088826117ef565b9750611a0b836119bb565b9250506001810190506119ec565b5085935050505092915050565b60006020820190508181036000830152611a4081846119c8565b905092915050565b6000602082019050611a5d6000830184611949565b92915050565b600080600060408486031215611a7c57611a7b61153c565b5b6000611a8a86828701611641565b935050602084013567ffffffffffffffff811115611aab57611aaa611541565b5b611ab786828701611555565b92509250509250925092565b7f4e487b7100000000000000000000000000000000000000000000000000000000600052601160045260246000fd5b6000611afd82611656565b9150611b0883611656565b9250827fffffffffffffffffffffffffffffffffffffffffffffffffffffffffffffffff03821115611b3d57611b3c611ac3565b5b828201905092915050565b7f4e487b7100000000000000000000000000000000000000000000000000000000600052603260045260246000fd5b600081519050611b868161162a565b92915050565b600060208284031215611ba257611ba161153c565b5b6000611bb084828501611b77565b91505092915050565b600082825260208201905092915050565b7f6e6f7420796f757220746f6b656e000000000000000000000000000000000000600082015250565b6000611c00600e83611bb9565b9150611c0b82611bca565b602082019050919050565b60006020820190508181036000830152611c2f81611bf3565b9050919050565b7f616c7265616479207374616b6564000000000000000000000000000000000000600082015250565b6000611c6c600e83611bb9565b9150611c7782611c36565b602082019050919050565b60006020820190508181036000830152611c9b81611c5f565b9050919050565b6000606082019050611cb76000830186611949565b611cc46020830185611949565b611cd160408301846118b3565b949350505050565b6000606082019050611cee6000830186611949565b611cfb60208301856118b3565b611d0860408301846118b3565b949350505050565b6000611d1b82611656565b91507fffffffffffffffffffffffffffffffffffffffffffffffffffffffffffffffff8203611d4d57611d4c611ac3565b5b600182019050919050565b7f43616e6e6f742073656e64206e66747320746f205661756c742064697265637460008201527f6c79000000000000000000000000000000000000000000000000000000000000602082015250565b6000611db4602283611bb9565b9150611dbf82611d58565b604082019050919050565b60006020820190508181036000830152611de381611da7565b9050919050565b6000611df582611656565b9150611e0083611656565b925082821015611e1357611e12611ac3565b5b828203905092915050565b6000611e2982611656565b9150611e3483611656565b9250817fffffffffffffffffffffffffffffffffffffffffffffffffffffffffffffffff0483118215151615611e6d57611e6c611ac3565b5b828202905092915050565b7f4e487b7100000000000000000000000000000000000000000000000000000000600052601260045260246000fd5b6000611eb282611656565b9150611ebd83611656565b925082611ecd57611ecc611e78565b5b828204905092915050565b600081519050611ee781611660565b92915050565b600060208284031215611f0357611f0261153c565b5b6000611f1184828501611ed8565b91505092915050565b7f4e487b7100000000000000000000000000000000000000000000000000000000600052604160045260246000fd5b7f4f776e61626c653a206e6577206f776e657220697320746865207a65726f206160008201527f6464726573730000000000000000000000000000000000000000000000000000602082015250565b6000611fa5602683611bb9565b9150611fb082611f49565b604082019050919050565b60006020820190508181036000830152611fd481611f98565b9050919050565b7f6e6f7420616e206f776e65720000000000000000000000000000000000000000600082015250565b6000612011600c83611bb9565b915061201c82611fdb565b602082019050919050565b6000602082019050818103600083015261204081612004565b9050919050565b600060408201905061205c6000830185611949565b61206960208301846118b3565b9392505050565b7f4f776e61626c653a2063616c6c6572206973206e6f7420746865206f776e6572600082015250565b60006120a6602083611bb9565b91506120b182612070565b602082019050919050565b600060208201905081810360008301526120d581612099565b905091905056fea2646970667358221220efda9d1e4037342419779bc240c0f1924777fa6561664e18072ef3991a34663564736f6c634300080d0033",
  "immutableReferences": {},
  "source": "// SPDX-License-Identifier: MIT\npragma solidity ^0.8.4;\n\nimport \"./ERC20Rewards.sol\";\n\nimport \"@openzeppelin/contracts/token/ERC721/IERC721Receiver.sol\";\nimport \"@openzeppelin/contracts/token/ERC721/extensions/ERC721Enumerable.sol\";\ncontract NFTStaking is Ownable, IERC721Receiver{\n    uint256 public totalStaked;\n  \n  // struct to store a stake's token, owner, and earning values\n  struct Stake {\n    uint24 tokenId;\n    uint48 timestamp;\n    address owner;\n  }\n\n  event NFTStaked(address owner, uint256 tokenId, uint256 value);\n  event NFTUnstaked(address owner, uint256 tokenId, uint256 value);\n  event Claimed(address owner, uint256 amount);\n\n  // reference to the NFT contract and rewards token\n  ERC721Enumerable nft;\n  ERC20Rewards token;\n\n   // maps tokenId to stake\n  mapping(uint256 => Stake) public vault; \n\n   constructor(ERC721Enumerable _nft, ERC20Rewards _token) { \n    nft = _nft;\n    token = _token;\n  }\n\n function stake(uint256[] calldata tokenIds) external {\n    uint256 tokenId;\n    totalStaked += tokenIds.length;\n    for (uint i = 0; i < tokenIds.length; i++) {\n      tokenId = tokenIds[i];\n      require(nft.ownerOf(tokenId) == msg.sender, \"not your token\");\n      require(vault[tokenId].tokenId == 0, 'already staked');\n\n      nft.transferFrom(msg.sender, address(this), tokenId); //NFT owner will approve staking contract first\n      emit NFTStaked(msg.sender, tokenId, block.timestamp);\n\n      vault[tokenId] = Stake({\n        owner: msg.sender,\n        tokenId: uint24(tokenId),\n        timestamp: uint48(block.timestamp)\n      });\n    }\n  }\n  function _unstakeMany(address account, uint256[] calldata tokenIds) internal {\n    uint256 tokenId;\n    totalStaked -= tokenIds.length;\n    for (uint i = 0; i < tokenIds.length; i++) {\n      tokenId = tokenIds[i];\n      Stake memory staked = vault[tokenId];\n      require(staked.owner == msg.sender, \"not an owner\");\n\n      delete vault[tokenId];\n      emit NFTUnstaked(account, tokenId, block.timestamp);\n      nft.transferFrom(address(this), account, tokenId);\n    }\n  }\n\n  function claim(uint256[] calldata tokenIds) external { //only with external func, cannt modify in func\n      _claim(msg.sender, tokenIds, false);\n  }\n\n  function claimForAddress(address account, uint256[] calldata tokenIds) external {\n      _claim(account, tokenIds, false);\n  }\n\n  function unstake(uint256[] calldata tokenIds) external {\n      _claim(msg.sender, tokenIds, true);\n  }\n\n  function _claim(address account, uint256[] calldata tokenIds, bool _unstake) internal {\n    uint256 tokenId;\n    uint256 earned = 0;\n\n    for (uint i = 0; i < tokenIds.length; i++) {\n      tokenId = tokenIds[i];\n      Stake memory staked = vault[tokenId];\n      require(staked.owner == account, \"not an owner\");\n      uint256 stakedAt = staked.timestamp;\n      earned += 100000 ether * (block.timestamp - stakedAt) / 1 days;  //formula for 1 token per day rewards \n      vault[tokenId] = Stake({                                         // rwrds= 100 ether * (block.timestamp-stakedAt)/86400\n        owner: account,                                                //  Earned= rwrds/100;     \n        tokenId: uint24(tokenId),\n        timestamp: uint48(block.timestamp)\n      });\n\n    }\n    if (earned > 0) {\n      earned = earned / 10;\n      token.mint(account, earned);\n    }\n    if (_unstake) {\n      _unstakeMany(account, tokenIds);\n    }\n    emit Claimed(account, earned);\n  }\n//Receiving Staking Information \nfunction earningInfo(uint256[] calldata tokenIds) external view returns (uint256[2] memory info) {\n     uint256 tokenId;\n     uint256 totalScore = 0;\n     uint256 earned = 0;\n      Stake memory staked = vault[tokenId];\n      uint256 stakedAt = staked.timestamp;\n      earned += 100000 ether * (block.timestamp - stakedAt) / 1 days;\n    uint256 earnRatePerSecond = totalScore * 1 ether / 1 days;\n    earnRatePerSecond = earnRatePerSecond / 100000;\n    // earned, earnRatePerSecond\n    return [earned, earnRatePerSecond];\n  }\n  // should never be used inside of transaction because of gas fee\n  function balanceOf(address account) public view returns (uint256) {\n    uint256 balance = 0;\n    uint256 supply = nft.totalSupply();\n    for(uint i = 1; i <= supply; i++) {\n      if (vault[i].owner == account) {\n        balance += 1;\n      }\n    }\n    return balance;\n  }\n\n  // should never be used inside of transaction because of gas fee\n  function tokensOfOwner(address account) public view returns (uint256[] memory ownerTokens) {\n\n    uint256 supply = nft.totalSupply();\n    uint256[] memory tmp = new uint256[](supply);\n\n    uint256 index = 0;\n    for(uint tokenId = 1; tokenId <= supply; tokenId++) {\n      if (vault[tokenId].owner == account) {\n        tmp[index] = vault[tokenId].tokenId;\n        index +=1;\n      }\n    }\n\n    uint256[] memory tokens = new uint256[](index);\n    for(uint i = 0; i < index; i++) {\n      tokens[i] = tmp[i];\n    }\n\n    return tokens;\n  }\n\n  function onERC721Received(\n        address,\n        address from,\n        uint256,\n        bytes calldata\n    ) external pure override returns (bytes4) {\n      require(from == address(0x0), \"Cannot send nfts to Vault directly\");\n      return IERC721Receiver.onERC721Received.selector;\n    }\n  \n\n\n}",
  "sourcePath": "/Users/faizanabid/NFTStakingWithERC20Rewards/contracts/ExistingNFTStaking.sol",
  "compiler": {
    "name": "solc",
    "version": "0.8.13+commit.abaa5c0e.Emscripten.clang"
  },
  "schemaVersion": "3.4.6",
  "updatedAt": "2022-08-18T05:47:46.439Z",
  "devdoc": {
    "kind": "dev",
    "methods": {
      "owner()": {
        "details": "Returns the address of the current owner."
      },
      "renounceOwnership()": {
        "details": "Leaves the contract without owner. It will not be possible to call `onlyOwner` functions anymore. Can only be called by the current owner. NOTE: Renouncing ownership will leave the contract without an owner, thereby removing any functionality that is only available to the owner."
      },
      "transferOwnership(address)": {
        "details": "Transfers ownership of the contract to a new account (`newOwner`). Can only be called by the current owner."
      }
    },
    "version": 1
  },
  "userdoc": {
    "kind": "user",
    "methods": {},
    "version": 1
  }
}